:020000043400C6
:1004000000001834C5E901349935003421EA01347B
:100410009B3500349D35003421EA01349F3500348A
:1004200000000000000000000000000091E0013426
:10043000A13500340000000021E0013449DD013421
:1004400021EA01340000000021EA013421EA0134EC
:1004500021EA013421EA013421EA013421EA01349C
:1004600021EA01340000000021EA013421EA0134CC
:1004700021EA01344D21003421EA0134000000005A
:1004800021EA01340000000021EA013421EA0134AC
:1004900021EA013421EA013421EA013421EA01345C
:1004A00021EA013421EA013421EA013421EA01344C
:1004B00021EA013421EA013421EA013421EA01343C
:1004C00021EA013421EA013421EA013421EA01342C
:1004D00021EA013421EA013421EA013421EA01341C
:1004E00021EA01340000000021EA013421EA01344C
:1004F00021EA013421EA013421EA0134A335003430
:10050000B1350034000000000000000000000000D1
:1005100021EA0134C163013421EA013421EA0134C2
:1005200021EA013421EA013421EA013421EA0134CB
:1005300021EA013421EA013421EA013421EA0134BB
:1005400021EA0134C1350034CD35003421EA0134CB
:1005500021EA013421EA013421EA013421EA01349B
:1005600021EA013421EA013421EA013421EA01348B
:1005700021EA013421EA013421EA013421EA01347B
:1005800021EA013421EA013421EA013421EA01346B
:1005900021EA013421EA013421EA013421EA01345B
:1005A00021EA013421EA013421EA013421EA01344B
:1005B00021EA013421EA013421EA013421EA01343B
:1005C00021EA013421EA013421EA013421EA01342B
:1005D00021EA013421EA013421EA013421EA01341B
:1005E00021EA013421EA013421EA013421EA01340B
:1005F00021EA013421EA013421EA013421EA0134FB
:1006000021EA013421EA013421EA013421EA0134EA
:1006100021EA013421EA013421EA013421EA0134DA
:1006200021EA013421EA013421EA013421EA0134CA
:1006300021EA013421EA013421EA013421EA0134BA
:1006400021EA013421EA013421EA013421EA0134AA
:1006500021EA013421EA013421EA013421EA01349A
:1006600021EA013421EA013421EA013421EA01348A
:1006700021EA013421EA013421EA013421EA01347A
:1006800021EA013421EA013421EA013421EA01346A
:1006900021EA013421EA013421EA013421EA01345A
:1006A00021EA013421EA013421EA013421EA01344A
:1006B00021EA013421EA013421EA013421EA01343A
:1006C00021EA013421EA013421EA013421EA01342A
:1006D00021EA013421EA013421EA013421EA01341A
:1006E00021EA013421EA013421EA013421EA01340A
:1006F00021EA013421EA013421EA013421EA0134FA
:1007000021EA013421EA013421EA013421EA0134E9
:1007100021EA013421EA013421EA013421EA0134D9
:1007200021EA013421EA013421EA013421EA0134C9
:1007300021EA013421EA013421EA013421EA0134B9
:0C0740000000000021EA013421EA01342D
:10075000034613F8012B002AFBD1181A0138704701
:1007600090EDAD5A30B52DED108B90EDA87BB5EE28
:10077000C05A89B08DED007BF1EE10FA90EDA47BAC
:10078000044691ED014A91ED002A91ED02FB91EDB5
:1007900004EB90ED123B90EDAACB90ED16BB8DEDE6
:1007A000047B90EDA66B09DCD0F8C832D648984798
:1007B0004FF0FF3009B0BDEC108B30BDB8EE444BAC
:1007C0009FEDC37BB8EE422B24EE077BB4EEC27BD9
:1007D000F1EE10FA0FDD90ED1C7B9FEDBF1B37EEA5
:1007E000011B9FEDBF7BB4EEC71BF1EE10FA37FE85
:1007F000017B80ED1C7B9FEDBC7B24EE074BB4EEB0
:10080000C24BF1EE10FA10D594ED1C7B9FEDB24B6C
:1008100037EE447B9FEDB64BB4EEC47BF1EE10FA9D
:1008200058BFB0EE474B84ED1C4B94F85050B7EED8
:10083000C55A012D64D19FEDB07B3FEE4E4B84EE47
:1008400007DB3FEE0E4B84EE07ABB0EECD7BB4EE94
:10085000C75BF1EE10FAB0EECA4B3CDBB4EEC45B02
:10086000F1EE10FA37DB002384F8783083EE0C9B2E
:10087000BCEEC99BB8EE499B29EE0C9B0022FCEE16
:10088000C95BB0EE498BCDED035A84F86020002B94
:1008900000F08C80F7EECB0BB7EEC70B8DED066B3F
:1008A00026F0E2F8B2EE047BB7EEC00AB0EECE5B03
:1008B00020EE070BB0EECF7BB4EEC57BF1EE10FA65
:1008C0009DED066B34DDB5EEC0FBF1EE10FA34D5CC
:1008D00039EE400B33E0B4EEC45BF1EE10FA25D5EF
:1008E0008AEE0D4B94EDAE5AB0EEC44BB7EEC55A3E
:1008F000B4EEC54BF1EE10FAB4BF01230023B5E707
:10090000B0EECF7BB0EECE4BB4EE474BF1EE10FA2B
:1009100034FE077BB4EEC57B9FED79ABF1EE10FAA8
:10092000B0EE4ADB8CBF012300239FE701239DE744
:10093000B5EEC0EBF1EE10FACAD539EE000B94ED2E
:100940003C7BB4EEC07BF1EE10FA03D5B0EE46BBB3
:10095000B0EE470B94ED3A7BB4EEC07BF1EE10FAAB
:1009600003DDB0EE46BBB0EE470B80EE0C8BBCEE69
:10097000C88BB8EE488B012D2CEE088B16D1B4F83D
:10098000E030022B5FD8FCEEC97BB8EE677B04EB4E
:10099000C30282ED207B82ED268B04EB0312013330
:1009A00082ED2CDB82ED2EABA4F8E03094F87830A9
:1009B0004BBB102204F1880104F180008DED066B21
:1009C0001EF058FC102204F1A00104F198001EF062
:1009D00051FCD4E9302384ED249BC4E92C23D4E9D1
:1009E000322384ED2A8BC4E92E23D4E934239DEDF0
:1009F000066BC4E93023D4E9362384ED34DB84ED7F
:100A000036ABC4E93223FCEEC87B17EE903A94ED86
:100A10001A7B039AB5EEC07B93421CBF012384F876
:100A20006030F1EE10FA71DD012384F860309DED45
:100A3000007BB4EEC7BBF1EE10FA79D59DED047BD7
:100A40003BEE076B66E094ED2A7B94EDAF5A38EEEF
:100A5000477BB7EEC55AB0EEC77BB4EEC57BF1EE6F
:100A600010FA2CDB94ED287B38EE477BB0EEC77B89
:100A7000B4EEC75BF1EE10FA21DD94ED320B94ED8C
:100A8000307B3AEE400B3DEE477B20EE000BA7EEAD
:100A9000070B8DED066B25F0BFFF94EDB07AB7EE36
:100AA000C77AB4EEC70BF1EE10FA9DED066B06D5D2
:100AB000FCEEC97B84F87850B8EE678B76E794F843
:100AC0007830012B04BF002384F878306EE700BF34
:100AD0009A9999999999A93F7B14AE47E17A843FF5
:100AE000343333333333C33F333333333333C33F9D
:100AF000111111111111B13FCD3B7F669EA0F63F40
:100B00000000000000000000641B033494F8603013
:100B1000002B8CD188EE0C7BBCEEC77BB8EE477BFC
:100B200027EE0C7B84ED166B84ED127B012041E6F1
:100B30009DED006BEEE790ED1A6BB5EEC06B90ED9E
:100B4000124BF1EE10FA90EDAA5BB0EE467BDFBFE0
:100B500084EE057BBCEEC77BB8EE477B27EE057BBA
:100B6000B7EEC77B90ED3C5BB7EEC74AB4EEC54B22
:100B7000F1EE10FAC8BFB7EEC57B90ED3A5BB7EE69
:100B8000C74AB4EEC54BF1EE10FA48BFB7EEC57BCD
:100B9000B7EEC75AD0F8743230B580ED125B93EDE2
:100BA000005AD0EDAC7AB4EEC75AF1EE675AF1EEC6
:100BB00010FA4FF00001B0F8F83075FEA77A013B4B
:100BC0008AB2934205D8442202FB030303F59073D3
:100BD00011E000EB8204D4ED445A77EEA55AF4EE0E
:100BE000C75AF1EE10FA01F10101E9DB442303FBDE
:100BF000020202F59073B5EEC06BF1EE10FAC0F888
:100C0000743205DC93ED007AB7EEC77A80ED127B83
:100C10005A6803F1380142609A6803F12404826043
:100C2000DA68C2601A69026100F138025D690C334A
:100C30004561DD680C30C5601D69A342056151F84E
:100C4000045B42F8045BF1D1012030BD10B50446CD
:100C500090B070B10023084C40212370C4F8C80242
:100C6000064B6846064A25F0A1FE6846D4F8C8320D
:100C70009847204610B010BD90A90F3480950F34CE
:100C8000A41B0334002814BF01204FF0FF3070472D
:100C900080ED000A30B50C6844604C6884608C6854
:100CA000C460C96802F12404016100F138011568CB
:100CB0000C32456152F8085C0C30C56052F8045C97
:100CC000A242056153F8045B41F8045BEFD130BDEB
:100CD0002DE9F04F2DED068B0E46B0EE409BB0EEA9
:100CE000418B1D460446C7B0002800F08F819FED60
:100CF000CCAB80ED12AB0020CF494FF00008C4E927
:100D00001601C4E9A601C4E9AA01CC49DFF8609341
:100D1000C4F8B0124FF07E51C4F8B4124FF07C51B9
:100D2000C4E91A890FF20039D9E90089C4E91C899C
:100D3000C4E9A4894FF00008C4F8B812C049DFF82C
:100D40003493C4F8BC124FF07F510023C4E9A88942
:100D500001274FF00008C4F8C012711EDFF8189385
:100D600088B20428C4E9A0890FF2C429D9E900890E
:100D700084F86030C4E9A289A4F8E03084F87830BF
:100D8000A4F8787214D905234FF48071AD4A06A8EF
:100D900025F00CFED4F8C83206A8984784F85070A5
:100DA000204647B0BDEC068BBDE8F04FFFF7C3BE51
:100DB00095ED007AB7EEC77AB4EEC70BF1EE10FAF4
:100DC00012DDD4F8C832A048984795ED007AB7EE06
:100DD000C77A8DED009B8DED027B9C4A4FF48071AC
:100DE00006A825F0E3FDD5E74FF0440C0CFB0658B0
:100DF00018ED117AB7EEC77AB4EEC71BF1EE10FA10
:100E000041D5D4F8C8329248984798ED007AB7EEA9
:100E1000C77A8DED008B8DED027B8E4ADEE70CFBF1
:100E200008F705EB070944372F4499ED007AD7ED11
:100E3000007AB4EEE77AF1EE10FA08F1010A00F157
:100E4000010021DBD4F8C8328348984797ED007A37
:100E5000B7EEC77A8DED047BCDF808A099ED007A46
:100E6000B7EEC77A43468DED007B7C4A4FF4807124
:100E700006A825F09BFDD4F8C83206A898470123A0
:100E800084F850308CE718461FFA80F84145C6D8E0
:100E900000234FF0440CB01E9FB2B94239D884ED04
:100EA0003A9B84ED3C8B0020A4F8F86083B2994211
:100EB00000F1010000F28B800027B84604F1FC0A23
:100EC00004F5907905EB070B09EB0700442259461E
:100ED0001EF062FEDBF8003008F101084AF8043B1E
:100EE0001FFA88F39E4207F14407EBD8731E9BB2AA
:100EF000002E03F1010314BF1A460122C4F87492B4
:100F000004F5B271013A6AD1012384F8503023709C
:100F100046E702EB8709B842D9ED007A4FEA870825
:100F200007F1010A1ED908F10408904498ED007AEF
:100F3000B4EEE77AF1EE10FA14D8D4F8C832484883
:100F4000984798ED007AB7EEC77A8DED047BCDF81F
:100F500008A099ED007AB7EEC77A3B468DED007B8D
:100F6000404A83E70CFB07F805EB080A9AED007A84
:100F7000B4EEE77AF1EE10FA08F14408A84408DA72
:100F800098ED007AB4EEE77AF1EE10FA03F101037E
:100F900082D8D4F8C8323448984798ED007AB7EE32
:100FA000C77A8DED047B9AED007AB7EEC77A8DEDA6
:100FB000027B99ED007AB7EEC77A3B468DED007B58
:100FC0004FF48071294A06A825F0F0FC53E702EBA4
:100FD00083073F6804EB8303C3F8107166E7D4F816
:100FE000743291ED006A93ED007AB7EEC66AB7EEFF
:100FF000C77A36EE4A6B37EE4A7BB4EEC76BF1EE3A
:1010000010FA48BFC4F8741244317BE74FF0FF3048
:1010100047B0BDEC068BBDE8F08F00BFAFF300809A
:10102000000000000088B3409A9999999999B93FB6
:101030000000000000A06E400000F03F00004842A9
:1010400000002F43B41B0334F81B03347F1C03340C
:10105000DD1C0334651D0334C21D0334261E033416
:101060007E1E0334ED1E0334571F0334AE1F0334BA
:101070000000F0BF000008400000244030B50546E5
:1010800014468DB052B9D0F8C8321D489847D5F8EB
:10109000C8321C48984720460DB030BD93ED042B54
:1010A00093ED021B93ED000B0AAA08A906A800F015
:1010B0002FF8DDE90823CDE90223DDE90A23CDE994
:1010C0000423012398420446CDE90033DFD1694669
:1010D0002846FFF745FB0128044603D0D5F8C8325F
:1010E0000948D7E795F86030012BD4D12846FFF79F
:1010F00022FD01280446CED0D5F8C8320348C9E7FE
:101100003420033495200334BE200334F22003340A
:10111000B5EEC00BF1EE10FA1FB509D4B5EEC01B49
:10112000F1EE10FA04D4B5EEC02BF1EE10FA0DD5A5
:101130008DED022B8DED001B53EC102B44481DF060
:1011400045FF4FF0FF3005B05DF804FB9FED327BAB
:10115000B4EEC70BF1EE10FA09DCB4EEC71BF1EEEA
:1011600010FA04DCB4EEC72BF1EE10FA07DD8DEDBA
:10117000022B8DED001B53EC102B3648DFE728B116
:1011800089B1B2B93449354B084607E071B13349EA
:101190003148002A304A314B18BF134602463048C6
:1011A0001DF014FFCDE72C492C48F2E72B490846E7
:1011B000EFE79FED1B7B9FED1C6B21EE077BB3EEF2
:1011C000005BA0EE067B9FED1A6BA2EE057BA7EEFF
:1011D000065B9FED197B80ED005B27EE417BBBEE4C
:1011E0000A5BA0EE057B9FED165BA2EE057B27EE6A
:1011F000067B81ED007B9FED147B27EE411BB2EE59
:10120000047BA0EE051BA2EE471B21EE061B01206E
:1012100082ED001B97E700BF0000000000E06F4078
:101220000000000000A06340000000000080474074
:10123000000000000000703F0000000000805540EA
:101240000000000000005C400000000000805940E9
:101250002721033465210334A40A0334A20A03348A
:10126000A5210334000000002DE9F0419846436DAC
:101270000F460646069923B9C8F800700A60BDE813
:10128000F081214D5B00B5FBF3F59542F4D2B2FB42
:10129000F5F407EE902A04FB0554B8EE677A07EEE2
:1012A000904ADFED1A6AF8EE677A67EEA67AB4EE36
:1012B000E77AF1EE10FADFD5621B0A60013207EE21
:1012C000902AF8EE677A87EE270AB7EEC00A21F077
:1012D0009FFB9FED0B7B20EE070BBCEEC00B10EECF
:1012E000103A3B441F46C8F80030F36CBB4294BF31
:1012F000C8F80030C8F80070C1E700BFAFF3008045
:10130000000000000088D34040420F003333733F99
:1013100007EE901A9FED287AF8EE677A70B587EE9F
:10132000871A2DED028B08EE102AB7EEC11AB2EE25
:10133000040B05461C46069E20F0E6FEB8EE488BE0
:1013400028EE000BFCEEC07B17EE902A696CB8EE1D
:10135000677A914216D900232360C6ED007A6B6C40
:10136000DFED166A07EE903AF8EE677A67EEA67A36
:10137000B4EE677AF1EE10FAC8BF1A463260BDECDF
:10138000028B70BD07EE901AF8EE677A87EE270A97
:101390003160B7EEC00A21F03BFB9FED057B20EEEC
:1013A000070BBCEEC00B84ED000AE8E7AFF300804A
:1013B000000000000088D34000409C4648E17A3F8E
:1013C00010B5044690B060B10023074C4021237053
:1013D000A065064B6846064A25F0E8FA6846A36D04
:1013E0009847204610B010BD60AC0F3486950F347E
:1013F000EF210334002814BF01204FF0FF30704765
:1014000038220A23C0E9042364222D237821C0E96D
:10141000062340F2DC5330B5C0E9081341F2707482
:1014200042F6E063C0E90A430BA5D5E90045052370
:1014300048F2E80103650023C0E910310121C0E949
:101440000C4507A5D5E90045C0E91212C0E90E45D3
:10145000436530BDAFF3008000000040E17A943F67
:10146000000000E04D62703F10B5044620B1FFF768
:10147000C7FF0120207010BD4FF0FF30FBE72DE9C2
:10148000F04F15469B46044687B0002800F02381A4
:101490000378012B1AD102230370D4F85480B8F1D9
:1014A000000F17D0904B4FEA4802B3FBF2F3A66C43
:1014B0008E4211D2626CAA420ED9B5FBF3F203FB45
:1014C00012534BB1C4E90156012006E1022BE4D0CE
:1014D000002002E10123EAE70DF114092A4604ABDA
:1014E0002046CDF800900391FFF712FFDDE904726A
:1014F000D4F810C0B6EE005B07EE90CAB8EE676A8B
:1015000007EE90BAB8EEE77BB7EEC66A37EE057B1A
:1015100086EE070B236DB7EEC00B9B45039948D2AF
:10152000F0EE007AB4EEE70AF1EE10FA41D4616C05
:10153000B7EE007A8A4220D2012A134638BF01232F
:1015400007EE903AF8EEE77A67EE807AFDEEE77AFA
:1015500017EE903A8B42C1BF07EE901AB8EEE76AD9
:1015600007EE902AF8EE676AC3BFC6EE267A0B46EE
:1015700080EE270AB0EE470A6360B4EEC70AF1EEC8
:1015800010FAA1DDB7EEC00A21F042FAB3EE047BF7
:1015900020EE070B9FED527B20EE070BBDEEC00B3C
:1015A00010EE103AE26C3B449342D4BFA360A260B9
:1015B0008AE7ACEB0B0383EAE37EAEEBE37E0393B7
:1015C000E3699E4559D8D4F824E00398A3694343BE
:1015D000606900EB0C0ADA45DFF814A155D207EE7A
:1015E00090EA9FED427AF8EEE77A67EE877A07EEA7
:1015F000103AF1EE676AB8EEC77AB4EEE67AF1EE29
:1016000010FA04D5FDEEE77A17EE903A5B42002B14
:1016100050D0BE4244D1616C8A4201D3002B3FDAE4
:10162000039807EE902A02FB000006EE900A002BBA
:10163000B8EEE77BB8EEE66B2FDA94ED0E5BA5EE25
:10164000067BBDEEC77B17EE102A236CA7609A427B
:10165000B8BF1A468A42D4BF626061602046CDF8A6
:10166000009004ABD4E90121FFF7FEFD049B059D2A
:10167000A3606560CAF8608026E7236A9E452CBF98
:10168000D4F82CE0D4F828E09FE7ACEB000CDC4564
:1016900010DD7345A8BF7346B9E794ED0C5BCEE748
:1016A0001F44BE4203DCE66CBE42A8BF3E46C4E90E
:1016B0000126D3E7DAF8603098450AD02A4620465A
:1016C000CDF8009004ABB8F1000FCDD1FFF720FEAC
:1016D000CCE7A160CDE74FF0FF3007B0BDE8F08F59
:1016E0000000000000408F4040420F009A99593F8F
:1016F00060AC0F3481F0004102E000BF83F0004392
:1017000030B54FEA41044FEA430594EA050F08BF9C
:1017100090EA020F1FBF54EA000C55EA020C7FEA60
:10172000645C7FEA655C00F0E2804FEA5454D4EBDD
:101730005555B8BF6D420CDD2C4480EA020281EAA7
:10174000030382EA000083EA010180EA020281EADF
:101750000303362D88BF30BD11F0004F4FEA013131
:101760004FF4801C4CEA113102D0404261EB410140
:1017700013F0004F4FEA03334CEA133302D05242C6
:1017800063EB430394EA050F00F0A780A4F1010482
:10179000D5F1200E0DDB02FA0EFC22FA05F28018BC
:1017A00041F1000103FA0EF2801843FA05F35941A2
:1017B0000EE0A5F120050EF1200E012A03FA0EFC21
:1017C00028BF4CF0020C43FA05F3C01851EBE3714B
:1017D00001F0004507D54FF0000EDCF1000C7EEB68
:1017E00000006EEB0101B1F5801F1BD3B1F5001FA6
:1017F0000CD349085FEA30004FEA3C0C04F10104C5
:101800004FEA445212F5800F80F09A80BCF1004FED
:1018100008BF5FEA500C50F1000041EB045141EA6F
:10182000050130BD5FEA4C0C404141EB0101013C38
:1018300028BFB1F5801FE9D291F0000F04BF014627
:101840000020B1FA81F308BF2033A3F10B03B3F1F9
:1018500020020CDA0C3208DD02F1140CC2F10C0289
:1018600001FA0CF021FA02F10CE002F11402D8BFE7
:10187000C2F1200C01FA02F120FA0CFCDCBF41EAB3
:101880000C019040E41AA2BF01EB0451294330BD82
:101890006FEA04041F3C1CDA0C340EDC04F114045F
:1018A000C4F1200220FA04F001FA02F340EA030036
:1018B00021FA04F345EA030130BDC4F10C04C4F17C
:1018C000200220FA02F001FA04F340EA030029465C
:1018D00030BD21FA04F0294630BD94F0000F83F4A6
:1018E000801306BF81F480110134013D4EE77FEA89
:1018F000645C18BF7FEA655C29D094EA050F08BFD5
:1019000090EA020F05D054EA000C04BF19461046B5
:1019100030BD91EA030F1EBF0021002030BD5FEAF9
:10192000545C05D14000494128BF41F0004130BD21
:1019300014F580043CBF01F5801130BD01F0004575
:1019400045F0FE4141F470014FF0000030BD7FEAE8
:10195000645C1ABF194610467FEA655C1CBF0B46E3
:10196000024650EA013406BF52EA033591EA030FFA
:1019700041F4002130BD00BF90F0000F04BF0021F2
:10198000704730B54FF4806404F132044FF0000525
:101990004FF0000150E700BF90F0000F04BF00219E
:1019A000704730B54FF4806404F1320410F0004504
:1019B00048BF40424FF000013EE700BF42004FEAFF
:1019C000E2014FEA31014FEA02701FBF12F07F437C
:1019D00093F07F4F81F06051704732F07F4208BF33
:1019E000704793F07F4F04BF41F40021704730B53A
:1019F0004FF4607401F0004521F000411CE700BF86
:101A000050EA010208BF704730B54FF000050AE008
:101A100050EA010208BF704730B511F0004502D509
:101A2000404261EB41014FF4806404F132045FEA0B
:101A3000915C3FF4D8AE4FF003025FEADC0C18BFB4
:101A400003325FEADC0C18BF033202EBDC02C2F1A6
:101A5000200300FA03FC20FA02F001FA03FE40EA38
:101A60000E0021FA02F11444BDE600BF7BB972B941
:101A70000029BEBF00204FF0004106E008BF00284B
:101A80001CBF6FF000414FF0FF3000F057B8ADF1D0
:101A9000080C6DE904CE002909DB002B1ADB24F0C9
:101AA00005FEDDF804E0DDE9022304B070474042A2
:101AB00061EB4101002B1BDB24F0F8FDDDF804E0B5
:101AC000DDE9022304B0404261EB4101524263EB85
:101AD00043037047524263EB430324F0E7FDDDF814
:101AE00004E0DDE9022304B0404261EB41017047AC
:101AF000524263EB430324F0D9FDDDF804E0DDE955
:101B0000022304B0524263EB4303704753B94AB90E
:101B1000002908BF00281CBF4FF0FF314FF0FF30F5
:101B200000F00CB8ADF1080C6DE904CE24F0BEFD58
:101B3000DDF804E0DDE9022304B07047704700BF20
:101B40000348044B834202D0034B03B1184770474C
:101B500090A90F3490A90F3400000000064B0749EC
:101B6000C91A891048BF0131491003D0044B0BB189
:101B700001481847704700BF90A90F3490A90F344F
:101B80000000000010B5064C237843B9FFF7D8FFDA
:101B9000044B13B10448AFF300800123237010BD40
:101BA000C4AC0F3400000000A86D023408B5054B2A
:101BB0001BB105490548AFF30080BDE80840FFF7B9
:101BC000CDBF00BF00000000C8AC0F34A86D0234C8
:101BD000044B82B0C3F84C0AD3F84C320193019BFA
:101BE00002B0704700800256044B82B0C3F8600A0E
:101BF000D3F860320193019B02B070470080025617
:101C000030B5ADF51B7D4022002168461DF04CFB30
:101C10009822002110A81DF047FB4FF4C872002144
:101C200036A81DF041FB012010F038F8012002F029
:101C3000CDFD0124002319227D210225CDE91D328D
:101C4000CDE925140822E121CDE91A53CDE921532C
:101C5000CDE92323CDE92932CDE92B31CDE92F532D
:101C6000CDE931231093062310A8CDE91F44CDE917
:101C70002745CDE92D45CDE934331C95339107F047
:101C8000C5FF00B1FEE74FF440337F22CDE90023CA
:101C90004FF0407302934FF08053CDE90C344FF076
:101CA0000053CDE90E344FF48013CDE90804CDE99B
:101CB0000A05CDE90330CDE905000790684608F034
:101CC000A1FB00B1FEE7084B002261934FF44003F3
:101CD000CDE93623054B36A8629308F049FF00B1E1
:101CE000FEE70DF51B7D30BD140000031404000356
:101CF0002DE9F0439BB003F023F802AB014601AAA3
:101D00004FF0FF3003F024F80024DDE9011220B287
:101D1000013402F0A3FFC32CF7D1FFF771FF1BF0D2
:101D2000C7FF1023A94C0225C4F86C3AD4F86C22E2
:101D300001271292129AC4F85C3AD4F85C324FF040
:101D400007081193119B6023A14815A91593CDE9AC
:101D500016571895CDF8648005F0C2FD4FF4E133B5
:101D60009C489D4A0C21C0E900230023C0E90431AE
:101D7000C0E9023383614FF40043C3610EF0BEFE3D
:101D8000024600B1FEE74FF00040DFF8A092FFF7F7
:101D90002BFFC4F8200AC9F820023846FFF718FFC5
:101DA0002846FFF715FF0420FFF712FF0820FFF772
:101DB0000FFF4FF48053C4F8543AD4F8543215A8A6
:101DC0001393139B854BCDE91622159307F0D2FB95
:101DD000834B15A8159307F0CDFB824B15A81593DF
:101DE00007F0C8FB804B15A8159307F0C3FB01F063
:101DF00089FB7E487E4B03600FF06EFA064628B1E1
:101E0000A4217C4B7C4A7D481DF09AFE0FF0BAFA63
:101E10000FF0DCFA04200FF09BFA0FF0CDFA14F06B
:101E200015FE14F01DFE304611F006F8304611F094
:101E300027F940F2011369463046ADF8003010F042
:101E4000B5FE304610F020FE4FF40073C4F8583A47
:101E5000D4F85832159503253846149315A9149BC8
:101E6000169507F0ADFA15A9082007F0A9FA15A9EB
:101E7000092007F0A5FA15A90A2007F0A1FA15A96B
:101E80000B2007F09DFA15A9042007F099FA4046A7
:101E900015A907F095FA2946594807F0E7FA2946A7
:101EA000584807F0E3FA2946574807F0DFFA294671
:101EB000564807F0DBFA2946554807F0D7FA294675
:101EC000544807F0D3FA2946534807F0CFFA294679
:101ED000524807F0CBFA2946514807F0C7FA29467D
:101EE000504807F0C3FA29464F4807F0BFFA294681
:101EF000042007F0BBFA4FF48063C4F8583AD4F8D2
:101F000058221592159AC4F8183AC9F818324FF0A9
:101F1000FF33C4F8843AD4F884221092109AC4F89B
:101F20008C3AD4F88C220F920F9AC4F8903AD4F8D5
:101F300090220E920E9AC4F8943AD4F894220D92FC
:101F40000D9AC4F8983AD4F898220C920C9AC4F8D6
:101F50009C3AD4F89C220B920B9AC4F8A03AD4F87D
:101F6000A0220A920A9AC4F8A43AD4F8A4220992A8
:101F7000099AC4F8A83AD4F8A8220892089AC4F892
:101F8000AC3AD4F8AC220792079AC4F8B43AD4F821
:101F9000B4220692069AC4F8B83AD4F8B822059248
:101FA000059AC4F8BC3AD4F8BC220492049AC4F846
:101FB000883AD4F888320393039B01F04DF83046F9
:101FC0001BF018F81BB0BDE8F08300BF008002567C
:101FD000001002564CBD0F34001000520031025266
:101FE00080310252003202528032025240BD0F3420
:101FF0000040035884000334012203347470023417
:102000000400003003000030020000300A000030FD
:10201000050000301C0000201D00002006000030DC
:102020000700003008000030180000100090025631
:102030007FB53B4A136843F400531360394B1A6A67
:1020400022F440321A621A6A22F040721A6202F0D6
:10205000D6FD354B5A6912F4003211D1BFF34F8FC0
:10206000BFF36F8FC3F85022BFF34F8FBFF36F8F53
:102070005A6942F400325A61BFF34F8FBFF36F8F3A
:10208000274A136843F480531360A2F573425369DF
:1020900013F4803328D1C2F88430BFF34F8F43F656
:1020A000E074D2F88030C3F3C900C3F34E335B0150
:1020B00000F1010E01464EF001E003EA040646EA93
:1020C0008175C2F8605201390FF007C8203B13F147
:1020D000200FEDD1BFF34F8F536943F48033536129
:1020E000BFF34F8FBFF36F8F104B4FF4806202939B
:1020F0000F4B1049019301230F48009300231AF05E
:1021000085FE30B94FF4A2710C4B0D4A0D481DF0FD
:1021100017FD1AF0C5FF40F247110B4B084AF5E7CF
:1021200000E001E00080025600ED00E0E0BC0F346A
:10213000E0AC0F347F700234F11C00348470023440
:102140000C2203347470023484000334FEE700B5BB
:10215000E5B04FF4C872002168461DF0A5F80023D1
:102160001022CDE900234FF400134FF08051329339
:1021700003236846CDE9221308F0FAFC48B900238E
:102180000822CDE90023282324906846259308F0EF
:10219000EFFC65B05DF804FB08B54FF48060FFF715
:1021A00017FD4FF08040FFF71FFD044BC3F8200AD6
:1021B00003F58053C3F8200208BD00BF008002561B
:1021C00000BEFEE708B502680C4B9A4215D14FF4E9
:1021D000801060220A4BC3F8200A03F58053C3F82D
:1021E0002002FFF701FD074B83F8412302229A608A
:1021F000502283F8422304229A6008BD004003580D
:102200000080025600E100E0027D436802B11B68D5
:10221000806818447047036810B5002BB8BF0024CD
:102220000A68B8BF04600C68002CBCBF00240C60B6
:102230000468B4F5487F24BF40F21F3404600C6882
:10224000B4F5F07F24BF40F2DF140C6000689842C0
:1022500004D10868801A18BF012010BD0120FCE7D6
:10226000F8B505460C46002601F12007D5ED007AA9
:10227000FDEEE77AC4ED007AD5ED017AFDEEE77A5E
:10228000214617EE903A204641F8043FFFF7C3FF7E
:102290000834BC4246EA000605F10805E6D130469E
:1022A000F8BDD0ED027A90ED037AF6EE006A67EEA3
:1022B000E67A27EE667A00B5B1EE676AF1EE476A14
:1022C0004FF0040EC1ED007A81ED017A81ED026AD2
:1022D00081ED037A81ED046AC1ED056AC1ED067AEC
:1022E000C1ED076A4EF001E090ED007AD1ED007A81
:1022F00077EE877AC1ED007AD1ED017A90ED017A1F
:1023000077EE877A083141ED017A0FF013C85DF856
:1023100004FB000010B5094C4FF0FF3120681AF0A3
:10232000BFFB012806D040F27961054B054A0648FB
:102330001DF006FC02F036FAEEE700BF30BE0F34A7
:1023400090700234802303349E70023410B54FF035
:10235000FF310446406D1AF0A3FB012806D040F27D
:1023600045610D4B0D4A0E481DF0EAFBD4F8C03014
:10237000606DB3FA83F35B09C4F8C03000231A46DA
:1023800019461AF0E9F9012804D04FF4C961024B4B
:10239000024AE8E710BD00BF9070023458230334AE
:1023A0009E70023410B54FF0FF310446406D1AF0B4
:1023B00077FB012806D040F239610D4B0D4A0E48DB
:1023C0001DF0BEFBD4F8BC30606DB3FA83F35B093B
:1023D000C4F8BC3000231A4619461AF0BDF901288A
:1023E00004D040F23C61024B024AE8E710BD00BF56
:1023F000907002343E2303349E70023438B5044694
:1024000000780FF0C7FC63680546834204D018B11A
:10241000A3680BB1E0689847656038BD08B54FF414
:10242000CB71024B024A03481DF08AFBA8700234AC
:10243000322303349E7002342DE9F04F2DED0A8BC8
:1024400090ED0BCAB7EECCCAADF5AF5D85B0B0EE7E
:102450004C0B044690ED07AA90ED09BA1FF020FD41
:10246000B0EE408BB0EE4C0B20F006FB94ED0A9AD8
:1024700094ED086AEC460DF56A650DF5EA60B7EE75
:10248000CAAAB7EECBBAB7EEC99AB7EEC66AAE46DD
:1024900006466746B6EE005B40F21D3940F2DD1895
:1024A0004FF4EA7194ED0C3A94ED0D4AB7EEC33A4D
:1024B000B7EEC44A33EE453BB0EE4A7B23EE0B3B0E
:1024C00034EE454BA3EE087B24EE094BA4EE407B93
:1024D000F7EEC72BB0EE467BA3EE007BA8EE047BA5
:1024E000FDEEE24A14EE90AAB7EEC77B5246FDEE2F
:1024F000C77A022AB8BF022217EE903A4A45A8BF0F
:102500004A46022B9B46B8BF4FF0020BC345A8BFFB
:10251000C346B3EB0B0318BF0123924518BF012339
:1025200001394CF8042B40F804BB4EF8043B04F18D
:102530000804B7D1002455F8043B43B96FF0FF03FA
:10254000022256F8241057F824000FF033FB013410
:10255000B4F5EA7FEFD10DF5AF5D05B0BDEC0A8BA8
:10256000BDE8F08F2DE9F04F2DED048BADB001F0FB
:10257000C1FD044601F0BAFDD0E9022320469B1AB2
:102580001E93FFF741FED4E902239B1A1F9020936C
:10259000032040F63403CDE921030A232393614B42
:1025A00061492493614B21A825934FF07E532693D4
:1025B00000238DF89C3014F07DFE074630B140F2C8
:1025C00052315B4B5B4A5C481DF0BAFA01F0E4FF04
:1025D000054601F0DDFF0146FFF716FED1E902894D
:1025E00004462846FFF710FED5E902239B1A042B68
:1025F000834604D040F27F31504B514AE3E705F166
:102600003800FFF701FED5E91023A3F5AF53103BC7
:102610009342059004D040F285314A4B484AD2E7B4
:1026200002F0D2F8484D0646394628681AF038FAC2
:1026300020B940F24751454B454AC4E7D5F8B4307C
:1026400005EB8302D2F8AC00D5F8A820013393FB48
:10265000F2F102FB1133C5F8B4300028E9D0394655
:1026600002F08CF8DFED3B8A9FED3B9A3B4FA9EBE4
:1026700008090023CDE92A3302F0A6F8831B07EEF0
:10268000903AB2EE0E7AF8EE677AE8EE877A079023
:102690004FF0FF31686D67EE898A1AF001FA012860
:1026A00004D040F206212E4B2E4A8CE7D5F8B830E4
:1026B00005EB8302D2F8AC60D5F8A820013393FB78
:1026C000F2F102FB1133C5F8B83026B940F2565189
:1026D000254B1F4A77E706F01F0E33460EF5962E60
:1026E000BFF34F8F0EF1FF3E4FEA5E1E0EF1010E5B
:1026F0004EF001E01D4AC2F85C3220330FF005C8ED
:10270000BFF34F8FBFF36F8F02F05EF831460020AA
:102710001E9A01F07DFC78B340F25F31144B154AEC
:1027200051E700BF9A99993ECC950F34CDCCCC3D62
:10273000BE700234E32203349E700234C770023448
:10274000D0220334EB700234543F10341B71023436
:10275000F6220334000000000000803DFC950F3499
:1027600090700234BF2203342771023400ED00E080
:1027700036710234AD220334AB4813F031FA1F9B9B
:102780002AAA1693012121AB16A814F0C7FD209A9E
:10279000002A1DDD1F9B03F01F001044BFF34F8F65
:1027A000DA4303EB000C624420385209203002F176
:1027B000010ED8BF4FF0010E4EF001E09B49C1F869
:1027C0005C3220330FF005C8BFF34F8FBFF36F8F1C
:1027D00001F0FAFF01F0F8FF01F0F6FF4FF0FF31D2
:1027E000786D1AF05DF90128804640F0AF80DDE990
:1027F0002A204FF0000E00F1010A704543461146B1
:102800009FED8B8A4FF0FF3CA8BF5346013B40F041
:10281000A280BCF1FF3F00F0B681182303FB0C221D
:10282000DFED845A92ED026A26EE256ABDEEC66A95
:10283000B8EEC66AD2ED017A8DED0B6A9FED7E6A25
:1028400092ED007A67EE867AD2ED036A27EE257A5A
:1028500066EE866AFDEEE77AFDEEE66AF8EEE77A66
:10286000BDEEC77AF8EEE66AB8EEC77ACDED0A7A21
:10287000DFED6F7ACDED0C6A8DED097ACDED0D7A35
:1028800001F0A2FF0EA909A8FFF70BFD16A90EA8DB
:10289000FFF7E6FC002800F08D804A460021204624
:1028A0001CF002FDDDED177A9DED0F7AF8EEE77A68
:1028B000DFED626A77EEC77A9DED136A67EEA67A5E
:1028C00036EE476A87EE867AFDEEC77A17EE903AC3
:1028D000DDED167A9DED0E5AB8EEE77ADDED125A6F
:1028E00037EE457A75EEC55A27EE267AC7EE257A79
:1028F000FDEEE77AC02017EE901A00FB031104EBFF
:102900008103169A06931A9B17999B1A07EE903A21
:10291000F8EEE77A87EEA57A67EE267AFDEEE77A9B
:102920001B9A17EE903A521A07EE902AF8EEE77AC1
:1029300087EE867A67EE267AFDEEE77A17EE902A22
:10294000D3B940F2AD313E4B3E4A3CE640F26751CE
:102950003D4B3E4A37E64869022809D1D1ED047A59
:10296000F4EEC87AF1EE10FAC4BFB0EE678AF4460E
:102970000EF1010E183149E722B940F2AE31344B65
:10298000304A20E600FB0230069901EB80006FF42C
:1029900040710844844204D94FF46D712D4B294A8B
:1029A00011E604EB090C604507D340F2B5312A4B20
:1029B000244A08E6C0231A4606944FF4486CDDE921
:1029C00016EA1B994FEA8E000CFB0A00A1EB0A0ADB
:1029D0001A993044B1EB0E0104D140F2BD311F4BC6
:1029E000184AF0E5BAF1000F04D140F2BE311C4B99
:1029F000144AE8E54FF4487E0EFB0A1E00EB8E0EEB
:102A0000AEF6814E764504D94FF47171154B0D4ADF
:102A1000D9E506F5BB1606F58056B64526D340F235
:102A2000C531114B074ACEE5CC950F3400ED00E0DF
:102A300000000000000048440000F0430000404354
:102A4000557102349122033490700234F62203341B
:102A500063710234727102348E710234BB710234BC
:102A6000C8710234D6710234EC710234CDE90232FD
:102A700000914FF4407362460699CDF804A01BF014
:102A8000C7FBB9F1000F1CDD04F01F004844BFF381
:102A90004F8FE3432618334420385B09203003F17D
:102AA000010ED8BF4FF0010E22464EF001E05D4905
:102AB000C1F8702220320FF005C8BFF34F8FBFF36B
:102AC0006F8F594813F08CF859460BF01F03BFF372
:102AD0004F8FD81C1C3B4009203300F1010ED8BF9A
:102AE0004FF0010E4EF001E04E4AC2F85C12203168
:102AF0000FF005C8BFF34F8FBFF36F8F059B03F037
:102B00001F0E0EF5AF5E0EF1100EBFF34F8F0EF1DC
:102B1000FF3E4FEA5E1E0EF1010E4EF001E0C2F8DC
:102B20005C3220330FF005C8BFF34F8FBFF36F8FB8
:102B30003E4E05993246584600F0C8FC01F044FE6E
:102B400006F01F0EBFF34F8F0EF69F6E4FEA5E1E0C
:102B50000EF1010E4EF001E0324BC3F85C622036FC
:102B60000FF005C8BFF34F8FBFF36F8F00232868A6
:102B70001A46194619F0F0FD012807D040F2FD1160
:102B80002B4B2C4A1FE54FF00008EFE7DFED2A7AC8
:102B900028EE278A2B9BBDEEC88ADFED287AC7F87E
:102BA000C430002387ED2B8AC7ED2A8AC7ED327A1D
:102BB000C7F8CC30B8F1000F28D0DFF870E09FEDF7
:102BC000207ADEED087A67EE877A1E4E0DF1240C2E
:102BD000BCE80F000FC63046FDEEE77ADCF80030A7
:102BE0004FF46A62714640F8043BC7ED2C7A1CF042
:102BF000D3FF0023786D1A46194619F0ADFD012860
:102C000007D040F2B7510A4B0F4ADCE4C7F8B08056
:102C1000EFE7002338681A46194619F09DFD079E14
:102C200027E500BF00ED00E09C950F3418401034FC
:102C300090700234812203340000C842000000007A
:102C400000004844E4960F34F62203342DE9F043A3
:102C5000836905460C4695B0002B00F08180D1EDCC
:102C6000027AFDEEE77A17EE900AD1ED037AFDEED7
:102C7000E77A17EE901AD4ED057AFDEEE77A17EEB3
:102C8000903AD4ED047AFDEEE77A17EE902A0132FD
:102C900002EBD2720133521003EBD37352425B103A
:102CA00086185B42801A0296CE18C91A04900C91BD
:102CB00002A803A90396FFF7AEFA0CA904A8FFF730
:102CC000AAFADDE902014FF0FF23049A00930C9B5E
:102CD000121A5B1A0EF058FE0026DFF8A080264F6D
:102CE000A26936F0020302EBC602D2ED007AFDEED5
:102CF000E77ACDED027AD2ED017A0CBFC146B94632
:102D0000FDEEE77A03A902A8CDED037A0136FFF7BD
:102D100082FADDE902014B4602220EF04BFF072E3C
:102D2000DED104A904F11C00FFF7BBFA0CA904A82A
:102D3000FFF796FA0CAF064690B9DFF83C800136F3
:102D400014AB06F00302CDF8008003EBC2027968F1
:102D500052E9082357F8080B0EF0B8FD042EEED107
:102D60006B692BB1204615B0BDE8F043FFF764BB9B
:102D700015B0BDE8F08300BF0000FFFFFF0000FFBB
:102D80002DE9F04F00212DED048B0846ADF6247D92
:102D90000EF0A2FF014608B1FFF740FB984B994F98
:102DA000CDE904038DF80C00012006970EF094FF86
:102DB0000028F1D1012304469FED8F9B8DF81C3034
:102DC000914BDFF88C92CDE908030A974FF0FF3161
:102DD000386819F065FE012806D040F25E618B4B21
:102DE0008B4A8C481CF0ACFE03A8FFF707FB07A832
:102DF000FFF704FB4FF0FF31786D19F051FE012809
:102E000004D040F26461814B814AEAE740F6F46203
:102E100081490BA81CF0C0FE0023786D1A461946A4
:102E200019F09AFC0128054604D040F26761774BFF
:102E3000774AD6E70F9401F0C7FC824672B6DFF8F6
:102E40001482D9F800307548294600FB03801BF036
:102E5000FDFC834620B140F22461714B714AC0E70A
:102E600062B6714C4FF4F0734FF448720146009013
:102E700004F1380504F120060EF04EFE0FCE0FC50A
:102E800096E8030085E8030001F0F2FC0546C4E97A
:102E9000080B1AF053FD2D1A63EB0303C4E90A5320
:102EA00001F092FCA36C226E20639B1AB3F57A7F2B
:102EB00006D3902204F1380104F150001CF0DAF935
:102EC000D4E91C23D4E91601801A61EB0301FEF753
:102ED00097FDD4E91A3241EC180BD4E91401C01A59
:102EE00061EB0201FEF78CFD28EE098B41EC160B1D
:102EF00088EE067BB7EEC78BDDED0B7A9FED4B7A44
:102F0000C7EE278A0EF0E8FA002102220846484B55
:102F100000F026FB0EF0E0FAB7EEC87AC188022274
:102F20008DED007B434B002000F01AFB0EF0D4FA2D
:102F3000C1880222404B01EB4101002000F010FB50
:102F40000EF0CAFA0222C1880C9B91400020009327
:102F50003A4B00F005FB0EF0BFFA0D9BC188022230
:102F600001EB810100200093354B00F0F9FA0EF0DF
:102F7000B3FAB7EEE87AC188324B8DED007B0222BE
:102F80000020C1EBC10100F0EBFA129B002B05DD24
:102F9000149B1BB114A90BA8FFF758FED9F80030F9
:102FA0001E4A02FB0383BFF34F8F45F6C05E4EF00F
:102FB00001E0254AC2F8683220330FF005C8BFF39C
:102FC0004F8FBFF36F8F72B601201BF049FC20B109
:102FD00040F22E61124B1D4A03E762B6D9F8003069
:102FE000C3F10103C9F8003001F0EEFBA0EB0A04C5
:102FF000ECE600BFAFF30080000000000000594085
:10300000A5230034FC950F344D2300349070023416
:10301000722303349E700234A4960F3400B80B0060
:103020002E7202341B230334B84E103400007A444D
:103030003C720234457202344F7202345A720234C6
:10304000697202348272023400ED00E0042303341A
:10305000984F1034001815912DE9F043854D93B029
:1030600085481CF075FBD5F8FC30844C43F0807328
:1030700000212046824AC5F8FC301CF015F9BFF348
:103080004F8FDFF880E200234EF001E0E218C5F830
:10309000702220330FF007C0BFF34F8FBFF36F8F45
:1030A000784D00212846784A1CF0FEF8BFF34F8F78
:1030B0004BF6803E00234EF001E06E4AE918C2F85C
:1030C000701220330FF007C0BFF34F8FBFF36F8F25
:1030D00003200021012602274FF01E098DF8300041
:1030E0006A486B4A0068CDE90A1203FB0044694B49
:1030F000CDE90D411193684B06A908930AAB0493DF
:1031000004A80EAB0F928DF8406006928DF81C70EB
:10311000ADF8249005931BF03DFB044630B14FF40D
:10312000D4615E4B5E4A5F481CF00AFD30460EF0EB
:103130009DF920460EF02CFDDFF8CC815A480EF0A8
:10314000C3F94FF0FF300EF0B7F942463946384622
:1031500019F0E2FAA8F1040548F8040C58B1214628
:10316000384608F1540219F0D7FA686540B958F8A2
:10317000040C19F095FD40F2BD61484B4B4AD2E773
:103180004B4BE0222146C5F8AC304A4803F5962364
:10319000C5E92C34C5F8A870C5F8B8401CF084F80F
:1031A00001F068FA21463046434A19F0B5FA434B1C
:1031B000186020B940F2C661414B3C4AB3E7414D2B
:1031C00021462A46304619F0A7FA2F1F45F8040C6D
:1031D00020B94FF4D9613C4B344AA4E7304605F19D
:1031E000540119F05BFB786520B940F2CA61374B96
:1031F0002E4A98E72146214801F0ACFA344B4FF4AF
:1032000080520293334B344901931D23334800937A
:10321000234619F0FBFD20B940F2D261304B234A1E
:1032200081E7304B4FF4006202932F4B2F490193FB
:103230001A232F480093234619F0E8FD20B940F2E5
:10324000D561274B194A6EE72A4B4FF4006202936F
:10325000294B2A49CDE900932948234619F0D6FD88
:1032600020B94FF4DB611E4B104A5CE713B0BDE898
:10327000F08300BF00ED00E08D72023400882C91D5
:1032800000C05D00001815910070170098A50F345C
:103290002003E00100D0209100600991BE7002344B
:1032A000742203349E700234A4A50F348F23033498
:1032B00000000091B84E1034E0BD0F3430BE0F3422
:1032C0009E72023400960F34A6720234B272023437
:1032D000F43E1034F4FE0F34BC7202346525003421
:1032E0008470023494FE0F3494DE0F34BF720234C3
:1032F000812D003434DE0F3434BE0F34C2720234F8
:103300001523003400EE0200583F103401282DE947
:10331000F347064650D1514FDFF870813D68D8F829
:10332000004001356B4203F0030304F1010405F092
:10333000030555EA43B5634203F00303DFF850A1E8
:10334000DFF8509104F0030454EA43B414F0F0F9A8
:10335000314600220AFB049303F09EFE014630B181
:1033600040F232213E4B3F4A3F481CF0E9FB0AFB4A
:1033700005901BF06BFA20B140F222213B4B3C4AF6
:10338000F2E71BF06DFA20B14FF40971374B384A60
:10339000EAE71BF06FFA20B140F22721334B344AA1
:1033A000E2E7344A3D601368C8F800400133136017
:1033B000002002B0BDE8F0870228F9D12E4C002190
:1033C000206819F06DFB0028F2D0D4F8B42004EB8B
:1033D0008203D3F8AC50D4F8A830013292FBF3F159
:1033E00003FB1122C4F8B420002DE1D014F0A0F9A1
:1033F0002B460022314603F04FFE20B140F245211A
:10340000174B1E4AB0E71B4B1D4A1B680190013B3E
:1034100013601AF07FFD0346A0B1606D01A919F099
:1034200053FA012804D040F21521164B164A9BE7A7
:10343000019B002BBCD04FF0E0234FF08052C3F82B
:10344000042DB5E702460146606D19F085F90128A3
:10345000AED040F219210B4B0B4A85E798A50F34EB
:103460002E7202345A2203349E700234BE7002342B
:103470004A22033414401034543F10342B220334B6
:1034800010401034907002341A2203349C4F1034D0
:103490000070170000882C91012807B510D1002377
:1034A0000193094B01A9186819F00EFA012807D1F8
:1034B000019B2BB14FF0E0234FF08052C3F8042D55
:1034C000002003B05DF804FB30BE0F3490ED007AAD
:1034D000F5EE007AB4EEE77AF1EE10FA00B50DD50C
:1034E0004FF4EA7E4EF001E00B68083242F8083CE7
:1034F0004B680C3142F8043C0FF00BC001205DF822
:1035000004FB00001FB5154B7C2101AA02A8029301
:103510000CF0BEFE0346E0B9019A02F4C031B1F5E9
:10352000C03F17D042F4C0327C2102A801920CF0B7
:10353000CBFE68B97C2101AA02A80CF0A9FE30B923
:10354000019B03F4C033B3F5C03F03D0FEE7FEE7B1
:10355000FEE7FEE705B05DF804FB00BF00900056F3
:1035600008B4F3B504460D46164607AB094F53F8A9
:10357000042B3021384601931DF0E4FB33463A46D4
:10358000294620460EF058F902B0BDE8F04001B0DF
:10359000704700BFA04F10347047FEE7FEE7FEE71C
:1035A000FEE708B514F0C4F8BDE8084002F0FAB828
:1035B00008B514F0BDF8BDE8084001F0BDBF00003B
:1035C00001480DF0ADBE00BF40BD0F3401480DF005
:1035D000BABE00BF40BD0F34F6EE007A60EEA70A17
:1035E00061EEA71A30EE607A71EE617A70EE800AB1
:1035F000B4EE677A31EE811AF1EE10FAF4EE410A78
:1036000077FE277AF1EE10FA48BFB0EE601A31EE7D
:10361000670A7047D1ED021A91ED001AD0ED020A47
:1036200090ED000A08B5FFF7D7FFB5EEC00AF1EE3E
:1036300010FAF0EE406A11D4D1ED031A91ED011A9F
:10364000D0ED030A90ED010AFFF7C6FFB5EEC00A00
:10365000F1EE10FA02D426EE800A08BD9FED010AB1
:10366000FBE700BF0000000010B5FFF7D3FF91EDAE
:10367000037AD1ED027AD0ED026A67EE877A90ED97
:10368000037AE6EE877A37EEC00A10BD08B5FFF779
:10369000C1FFB5EE400AF1EE10FAB0EE406A0BD071
:1036A000FFF7E2FFB5EE400AF1EE10FAF0EE407AD5
:1036B00002D086EE270A08BD9FED010AFBE700BF96
:1036C0000000000030B501EB400503EB4204C1EB04
:1036D0004000C3EB42039842B8BF1846A542D4BF8E
:1036E000C0EB0500C0EB040030BD70B58B680A6804
:1036F00005460E4681680068FFF7E4FF041E0BDBF9
:10370000F3687268E9686868FFF7DCFF44430028E3
:10371000ACBF2046002070BD0020FCE738B50C4649
:103720000546FFF7E2FFD4E90234D5E902216343FD
:1037300001FB0233C0EB830038BD000010B590F9E7
:10374000003088B09B1A009390F901309B1A0193C6
:1037500090F902309B1A029390F9033068469B1A45
:10376000039391F900309B1A049391F901309B1A4D
:10377000059391F902309B1A069391F9033004A93D
:103780009B1A0793FFF7B1FF044604A96846FFF7A9
:10379000C5FF64B158B107EE904AB8EEE77A07EE7C
:1037A000900AF8EEE77A87EE270A08B010BD9FED81
:1037B000010AFAE70000000070B58024E6EE104B25
:1037C00000242DED048BE4EE104B099C24EF5421D2
:1037D000102C28BF102404F001E8FDEE104AA4B21A
:1037E000264680EF518E089D013101390CD1EDEE56
:1037F000104A71FE4D0F85ED005E71FE4D0F83ED99
:10380000007EBDEC048B70BDEDEE106A71FE4D0FB5
:1038100090ED001E71FE4D0F01FE071F104433FE98
:10382000054F31FE076F02EF4828DEE72DE9F04132
:103830002DED108B179D0024102D28BF102505F0AD
:1038400001E8FDEE105A4FF0800CE6EE104BADB2E1
:10385000E0EE10CB26EF5641A0462E4680EF51EE0B
:1038600001BBA8FE448F4FF48072A8FE462FA8FE2D
:10387000445FA8FE467F19FE422E15FE426E22EFDF
:1038800052C126EF56E1169AEDEE105A82FC80DE08
:1038900082FCA0DE71FE4D0F83ED001EBDEC108B8F
:1038A000BDE8F081B1F5807F8E4628BF4FF4807E61
:1038B000BEF1010FE8EE108BB8BF4FF0010E28EFFC
:1038C00058A1E2EE10CB07464EF001E0EDEE106A93
:1038D00071FE4D0F97ED00DE71FE4D0F0DFE031FC3
:1038E000174439FE0BAF3DFE032F08EF4E880FF053
:1038F00013C8EDEE106A71FE4D0F03FE011FA1F516
:10390000807171FE4D0FE4EE104B33FE010F3BFE54
:10391000076F0134A4E700000149024813F0B2B870
:10392000E07220346039203408B50549054813F0A9
:10393000A9F8BDE808400449044813F0A3B800BF43
:10394000E049203460392034806220340052203431
:103950000149024813F096B8E020203400002034DA
:103960000149024813F08EB8000D223400002034C3
:103970000149024813F086B8A0322434001A2434D6
:103980000149024813F07EB8404B2434A02522346C
:103990000149024813F076B8E0522334A0382334AA
:1039A0000149024813F06EB80008273400A42634F9
:1039B00008B50549054813F065F8BDE80840044915
:1039C000044813F05FB800BFC00C27340008273448
:1039D00000102E3400802C3408B50549054813F03A
:1039E00051F8BDE808400449044813F04BB800BF43
:1039F000009E2734006C2734C0222E3400102E3451
:103A00000149024813F03EB800B434340050343455
:103A100008B50549054813F035F8BDE808400449E4
:103A2000044813F02FB800BF0020233400002034D6
:103A300000643934009C383408B50949094813F04A
:103A400021F80949094813F01DF80949094813F0FC
:103A500019F8BDE808400849084813F013B800BF3A
:103A600000902134000020340040263400782534B2
:103A700000F02A340060293400C839340064393435
:103A800037B50D4D0D4C2946204612F0FBFF0021A5
:103A9000084610F0C9FA00230122CDE900320323C1
:103AA000074A1946074811F0F5FB2946204603B09E
:103AB000BDE8304013F010B88039203400002034C5
:103AC000282404349824043437B50D4D0D4C294670
:103AD000204612F0D7FF0021084610F0A5FA012376
:103AE00004220221CDE900320748084A11F0D2FB36
:103AF0002946204603B0BDE8304012F0EDBF00BFBC
:103B0000A0252234600B223434200434C41F043432
:103B100037B50D4D0D4C2946204612F0B3FF00215C
:103B2000084610F081FA082300220221CDE9003274
:103B300007480123074A11F0ADFB2946204603B090
:103B4000BDE8304012F0C8BF800B2234C0A221343F
:103B5000A41E0434341E043437B50D4D0D4C2946D3
:103B6000204612F08FFF0021084610F05DFA08236E
:103B700009220221CDE9003207480123074A11F04A
:103B800089FB2946204603B0BDE8304012F0A4BFAF
:103B9000C0A2213400002034141D0434A41C0434B9
:103BA00037B50D4D0D4C2946204612F06BFF002114
:103BB000084610F039FA082300220221CDE900322C
:103BC00007480123074A11F065FB2946204603B048
:103BD000BDE8304012F080BF002E29340098283410
:103BE000841B0434141B043437B50D4D0D4C294689
:103BF000204612F047FF0021084610F015FA062370
:103C000000220221CDE9003207480123074A11F0C2
:103C100041FB2946204603B0BDE8304012F05CBFAE
:103C2000008C2A3400602934F419043484190434D3
:103C300037B50D4D0D4C2946204612F023FF0021CB
:103C4000084610F0F1F9042300220221CDE90032E8
:103C500007480123074A11F01DFB2946204603B0FF
:103C6000BDE8304012F038BF00B0243400002034EA
:103C700064180434F417043437B50D4D0D4C29463F
:103C8000204612F0FFFE0021084610F0CDF9012376
:103C900000220221CDE900230748084A11F0FAFA70
:103CA0002946204603B0BDE8304012F015BF00BFE2
:103CB0000058223400002034A41504343415043490
:103CC00030B5124D124C87B02946204612F0DAFE6C
:103CD0000021084610F0A8F9062307220821CDE9A3
:103CE00003320423CDE9013140F6340341F2680286
:103CF000009308490223084811F016FD2946204682
:103D000007B0BDE8304012F0E7BE00BF806220344B
:103D100000522034442304347C23043430B5124D43
:103D2000124C87B02946204612F0ACFE002108460E
:103D300010F07AF9032305220821CDE90332042388
:103D4000CDE9013140F6340341F26802009308499D
:103D50000223084811F0E8FC2946204607B0BDE8D8
:103D6000304012F0B9BE00BF40312034C0202034B2
:103D7000BC220434F422043430B5114D114C87B008
:103D80002946204612F07EFE0021084610F04CF92C
:103D9000032305220821CDE903324323CDE9013174
:103DA00040F63403084A009308494023084811F0BC
:103DB000BBFC2946204607B0BDE8304012F08CBE5F
:103DC000000D223400002034000D02007C21043458
:103DD000B421043430B5124D124C87B02946204628
:103DE00012F050FE0021084610F01EF900230222B6
:103DF0000821CDE903324323CDE9013140F63403F4
:103E000041F69C02009308490323084811F08CFCFA
:103E10002946204607B0BDE8304012F05DBE00BF25
:103E2000A0252234000D2234F42004342C21043443
:103E300070B5D2B04FF4A472002168461BF034FA7A
:103E400048F2403409232B498DF80030CDE90514A0
:103E50000123CDE910140991149120210422CDE908
:103E60001813CDE91A3140F6340580211020CDE930
:103E70000125CDE90C25CDE91C12CDE91E211E4DF1
:103E80001E4C1F4E1F4ACDE90303CDE90703CDE9C0
:103E90000E03CDE912038DF82C308DF858301793AE
:103EA0000A96159520942B9220323692103A419220
:103EB00020324C921A2214496846CDE94E126FF016
:103EC0001E028DF88430CDE95023269331938DF86E
:103ED000DC303C9347938DF8343112F031FC2846A6
:103EE0000A4912F0F9FD2046094912F0F5FD52B0D9
:103EF00070BD00BF000D0200000D2234A03224343A
:103F000000002034400D867080537167001A2434FD
:103F10002033243430B5104D104C85B0294620464E
:103F200012F0B0FD0021084610F07EF801230422B3
:103F3000CDE902320A4B0B4A01930B4B0B4900931C
:103F40000B480C4B11F0BCF82946204605B0BDE8E3
:103F5000304012F0C1BD00BF001A2434000D2234DD
:103F60002C2204343422043430220434FC2104345E
:103F70006C2204341C22043430B50E4D0E4C85B036
:103F80002946204612F07EFD0021084610F04CF82C
:103F9000022303220121CDE901320093074A084898
:103FA00011F080F82946204605B0BDE8304012F0F7
:103FB00093BD00BF00D0273400B024349C160434D5
:103FC0000C17043430B50E4D0E4C85B029462046F2
:103FD00012F058FD0021084610F026F804230522AF
:103FE000CDE9013202230121074A0093074811F06D
:103FF00059F82946204605B0BDE8304012F06CBDA6
:1040000000E8233400582234DC1304344C14043404
:1040100040B911F01F0007D1B2F5962F06D3044B1B
:1040200019607047032070470120704702207047D5
:10403000E80B143410B9024B186870470020704721
:10404000E80B1434032070470020704700220E4B09
:1040500013B51A6010F08EFA0C490D4812F00AFDE3
:1040600010F0A0FA4EF604730A49094801AA019318
:1040700012F07EFC044618B10449054812F02CFDEC
:10408000204602B010BD00BFD04F1034E80B1434EE
:10409000D84F1034F0A9083413B510F06BFA0C495E
:1040A0000C4812F0E7FC10F07DFA0B4B0022009355
:1040B0000A4B08491B680A4812F094FC044618B1E0
:1040C0000349044812F008FD204602B010BD00BFAD
:1040D000E80B1434D84F1034D04F1034E80B14349C
:1040E00008AA08340048704778250434004870470F
:1040F0001C1304340048704784120434004870478D
:10410000084803340149024812F0BCBC801B20342B
:10411000E01520340149024812F0B4BC8004203478
:10412000400220340149024812F0ACBC6014203433
:10413000401420340149024812F0A4BC400B203442
:10414000000920340149024812F09CBC0048203488
:10415000000020340149024812F094BC0090203441
:10416000000020340149024812F08CBC0040223487
:10417000002021340149024812F084BC00B02134EF
:104180000020213430B5214DAFB02946204812F02F
:1041900079FCB422002101A81BF086F82A2340F202
:1041A0007C528DF8043001231A49CDE90423CDE96E
:1041B0000823CDE90F23CDE906220A920B91119233
:1041C000042141F2F052CDE91412CDE91222124A33
:1041D000124C0DEB010021923032CDE90233CDE9D2
:1041E0000D338DF830308DF85C301C938DF88830AD
:1041F00027932C928DF8B430169412F005FA2946C4
:10420000204612F069FC2FB030BD00BF00162034EC
:10421000E0152034F015203400D041700000203427
:1042200030B51F4D1F4CAFB02946204612F02AFC76
:104230000021B42201A81BF037F82A231A4A8DF86E
:1042400004300B9204220123CDE91222CDE914227D
:10425000164A01A81692164ACDE90233219230324D
:10426000CDE90433CDE90633CDE90833CDE90D338B
:10427000CDE90F330A938DF8303011938DF85C300F
:104280001C938DF8883027932C928DF8B43012F05F
:10429000BBF92946204612F01FFC2FB030BD00BFED
:1042A000801B2034601B203440142034701B2034C9
:1042B00010D0417030B50E4D0E4C85B029462046C9
:1042C00012F0E0FB002108460FF0AEFE01210023B2
:1042D000CDE901310323084A0093084810F0E2FDBC
:1042E0002946204605B0BDE8304012F0F5BB00BFBE
:1042F00040022034000020341C9A0C348C9A0C3478
:1043000030B50E4D0E4C85B02946204612F0BAFB52
:10431000002108460FF088FE032302220121CDE987
:1043200001230093074A084810F0BCFD29462046A7
:1043300005B0BDE8304012F0CFBB00BF40142034C0
:1043400000122034EC980C345C990C3430B5104DCC
:10435000104C85B02946204612F094FB00210846F7
:104360000FF062FE03230422CDE902320A4B0B4A0E
:1043700001930B4B0B4900930B480C4B10F0A0FE24
:104380002946204605B0BDE8304012F0A5BB00BF6D
:1043900000D820340090203424980C342C980C340D
:1043A00028980C34F4970C3464980C3414980C341A
:1043B00030B5104D104C85B02946204612F062FBF6
:1043C000002108460FF030FE00230222CDE9023220
:1043D0000A4B0B4A01930B4B0B4900930B480C4BB8
:1043E00010F06EFE2946204605B0BDE8304012F0C0
:1043F00073BB00BF00B02134002021346C970C3413
:1044000074970C3470970C343C970C34AC970C3484
:104410005C970C3430B5104D104C85B029462046C1
:1044200012F030FB002108460FF0FEFD04230522A8
:10443000CDE902320A4B0B4A01930B4B0B49009317
:104440000B480C4B10F03CFE2946204605B0BDE859
:10445000304012F041BB00BF0060233400402234E2
:10446000B4960C34BC960C34B8960C3484960C3448
:10447000F4960C34A4960C3430B5104D104C85B025
:104480002946204612F0FEFA002108460FF0CCFD26
:1044900002230322CDE902320A4B0B4A01930B4B54
:1044A0000B4900930B480C4B10F00AFE294620469E
:1044B00005B0BDE8304012F00FBB00BF0040223411
:1044C00000B02134FC950C3404960C3400960C3466
:1044D000CC950C343C960C34EC950C3410B5AEB045
:1044E000B422002101A81AF0DFFE4FF410644FF44B
:1044F000D831C022282303204FF00C0CCDE906143C
:10450000CDE90222CDE90D2204244FF410724FF4BC
:10451000D82E8DF804300123CDE908C4CDE912204E
:10452000104C114ACDE90403CDE90AE4CDE90F03AB
:1045300004F5D824219201A83032CDE9143111912B
:104540008DF85C301C938DF8883027932C928DF871
:10455000B430169411F0BCFF2046044912F0BCFAA6
:104560002EB010BD00002034F0CF41700070283410
:1045700003207047002070470320704700207047D9
:10458000012070470120704700487047FC9A0C34A6
:10459000004870474C950C340048704784940C34A4
:1045A00000487047DC6E0C3407EE901AF8EEE76AAC
:1045B00007EE902A9FED286AB8EEE77ADFED275ADA
:1045C00086EE865AC7EE257AB4EE675AF1EE10FAF7
:1045D00048BFF0EE457AB7EE005AF4EEC57AF1EE38
:1045E00010FA08B505DA20211D4B1E4A1E481BF0A3
:1045F000A7FA9FED1E5AF4EEC57AF1EE10FA03D435
:1046000021211B4B174AF1E727EE866A67EEA57A50
:10461000F4EEC66AF1EE10FAB4EEE77ACCBFFCEE27
:10462000C66AFCEEE66AF1EE10FA16EE903ACCBFDE
:10463000BCEEE77ABCEEC77A0131C91A17EE103A20
:104640000132D21A49085208C0ED006A80ED017AA1
:104650008160C26008BD00BF000048440000F04314
:10466000A1F3023447EE0E34ACF302340000804272
:10467000BAF3023470B500231E22022492B001A8BE
:10468000CDE90133CDE903230593069413F09AF99C
:1046900028B16021284B294A29481BF051FA4FF4D0
:1046A00048714FF4F0730125CDE90713DDE90112DC
:1046B00004230326CDE90B500EA809940A930D9606
:1046C000FFF772FF6A46284607A913F035F818B1BC
:1046D0003A211C4B1C4ADFE70A9A079B5343009A76
:1046E000934203D03B21194B174AD5E74FF4A072F0
:1046F000C023CDE90906CDE90723DDE90112CDE9A3
:104700000B500EA80D96FFF74FFF6A46204607A9EB
:1047100013F012F818B14F210A4B0D4ABCE70A9A60
:10472000079B5343009A934203D05021074B084AFA
:10473000B2E712B070BD00BFC5F3023471EE0E34A3
:10474000ACF302342E7202345AEE0E34DBF3023430
:1047500035EE0E340A4608B50146012013F0AEF8D6
:1047600028B16C21024B034A03481BF0E9F908BD4C
:10477000C5F302341FEE0E34ACF302340A4608B51A
:104780000146022013F09AF828B17421024B034A23
:1047900003481BF0D5F908BDC5F302340EEE0E3404
:1047A000ACF3023408B513F063F928B17C21034B54
:1047B000034A04481BF0C4F908BD00BFC5F3023426
:1047C00000EE0E34ACF3023418F0C2BC08B5EFF3BF
:1047D00005832BB12721044B044A05481BF0B0F98F
:1047E000BDE8084018F016BE8400033486EE0E348F
:1047F00019F4023400207047042213B5154B164CEF
:10480000C3F8642AD3F864320193019B134B2360ED
:104810004FF0FF33E36006F07FF8114BB0FBF3F08D
:1048200000230138606020462361A3600CF028FC5F
:1048300028B13E210B4B0C4A0C481BF081F9204655
:104840000CF084FA18B14121064B074AF4E702B094
:1048500010BD00BF00800256AC1E1434000800508A
:10486000A08601002E7202347AEE0E3419F402345E
:10487000014B1B68586A7047AC1E1434034B03602D
:10488000034B0B604FF48063136070474C1E14346D
:104890004C0E1434034B0360034B0B6080231360F6
:1048A000704700BFEC0D1434EC0B1434444B454AF4
:1048B00070B501209A60022500224349434E01F55C
:1048C0008054C1F8180AC4F81802C4F85802C3F892
:1048D000D820C3F8DC20C3F8E020C3F8D800C3F820
:1048E000DC20C3F8E020C3F8D8500325C3F8DC204F
:1048F000C3F8E020C3F8D8500425C3F8DC20C3F87F
:10490000E020C3F8D8500525C3F8DC20C3F8E02028
:10491000C3F8D8500625C3F8DC20C3F8E020C3F85C
:10492000D8500725C3F8DC20C3F8E020C3F8D850DE
:10493000C3F8DC20C3F8E020C1F8780AD1F8782267
:104940009A683261224AD56B45F48055D563D56BA0
:1049500045F01005D563D26BD1F8742242F40042C1
:10496000C1F87422D1F8782242F01002C1F87822FE
:10497000D1F87822D1F8782222F01002C1F87822FA
:104980004FF44052C1F8202AC4F820224022C1F836
:10499000240AC4F82402C4F86402C4F85C22326910
:1049A000C4F87802D3F8882042F47002C3F8882053
:1049B000084AD2F8883043F47003C2F8883070BDDA
:1049C00000ED00E000040034008002560080005634
:1049D0000048025600ED02E0774BF0B51A6A02F487
:1049E0004012B2F5001F00F0CC8006D862B99B6C73
:1049F000724AC3F3C113DA4003E0B2F5401F0BD093
:104A000000226F4B1A60F0BD5B6C6E4A13F4007F9E
:104A10006D4B08BF1A46F4E7D3F8C42002F04052A9
:104A2000B2F1805F2BD0B2F1005F38D0002A45D1BF
:104A3000D3F88020160102F0E04100F1A980D3F8FC
:104A40008400D3F88830C2F30B2520F07F400C4659
:104A5000B4F1005FC3F3C266C2F30551C3F302634E
:104A600079D000F29080002C3DD00024524A564F5D
:104A7000526C12F4007F534A08BF3A4639E0D3F82B
:104A80009020150102F0E04100F18280D3F89400FB
:104A9000C2F30B25D3F8983020F07F40D7E7D3F846
:104AA000A020140102F0E04172D4D3F8A400C2F3B4
:104AB0000B25D3F8A83020F07F40C8E7D3F8B0200A
:104AC000100102F0E04163D4D3F8B400C2F30B2527
:104AD000D3F8B83020F07F40B9E70B460E460846C1
:104AE0000D464FF00064344A976C344AC7F3C1173F
:104AF000FA403CBB07EE100AB8EEC76A07EE105A40
:104B000007EE902ADFED316AB8EEC77AF8EEE77A61
:104B1000A6EE267A67EE877A07EE101AB8EEC77A05
:104B2000C7EE876A07EE906AB8EEE77A07EE903A2A
:104B3000F8EEE77A27EE277AC6EE877AFCEEE77A78
:104B400017EE902A1C4BD3F8C430C3F3074301334C
:104B5000B2FBF3F255E700241D4ACAE700234FF0E9
:104B600000641E4618461D461946F5E70024194AFA
:104B7000BFE700234FF000641E4618461D46194645
:104B8000F5E7134A3DE7B4F1405FEFD00022B1E70B
:104B9000B1F1005FE2D009D800299ED000234FF088
:104BA00000641E4618461D4619465FE7B1F1405F96
:104BB000DFD00022C6E700BF008002560090D0037D
:104BC0009CA50F340024F40000093D000000803350
:104BD000006CDC020080BB006DED81CF00B5FFF7FB
:104BE000FBFE054B5DF804EB18689FEC100A9FE88C
:104BF0000E90FDEC81CF74479CA50F34704710B523
:104C0000032000F00DF8FFF7E7FE0F20FFF7F2FD9D
:104C1000044618B9FFF7F2FF204610BD0124FBE758
:104C2000C31E042B10B5044603D9E6210948FDF73D
:104C3000C7FA09492302CA6803F4E06322F4E06278
:104C40001204120C134343F0BF6343F40033CB60F0
:104C500010BD00BF2CF4023400ED00E010F10C0F89
:104C60002DE9F04105460C46174601DB031D03D133
:104C7000FF212648FDF7A4FA254BDE68C6F302267D
:104C8000022E06D857B14FF481712048FDF798FAEB
:104C900004E00123F21E9340BB42F4D90F2CC6F16D
:104CA000070804D8012303FA08F3A34204D840F20A
:104CB00003111648FDF784FAB8F1040F06F1040356
:104CC00028BF4FF004084FF0FF32062BA6F1030671
:104CD00098BF002602FA08F824EA0803B24027EA3F
:104CE0000207B340002D43EA0703ACBF05F160455E
:104CF000084A4FEA0313DBB2ABBF05F5614505F087
:104D00000F0585F800335355BDE8F0812CF40234CB
:104D100000ED00E014ED00E0002808DB012341096C
:104D2000054A00F01F00834042F82130704740F2EE
:104D300015110248FDF744BA00E100E02CF40234FA
:104D4000024BD868C0F30220704700BF00ED00E0BE
:104D500010F10C0FF8B504460D4617461E4601DB50
:104D6000031D04D14FF4BC711948FDF729FAEB1E5D
:104D7000042B04D940F279111548FDF721FA002CD3
:104D8000ACBF04F16044134B05F00701C1F1070209
:104D9000ABBF04F5614404F00F0494F800331B5DCD
:104DA000081D042A28BF04220628A1F103014FF0A0
:104DB000FF3098BF00211B0900FA02F223FA01F428
:104DC000884024EA020223EA00033A603360F8BD17
:104DD0002CF4023414ED00E0F8B51446036871BBFE
:104DE000D3F8042422F4C01242EAC442C3F80424D3
:104DF000234B022C1A6838D0032C39D0012C3AD11D
:104E000042F040021A60FFF7DFFC4FF4003607461D
:104E10001B4DA640FFF7D8FCC01BB0F57A7F2DD8FC
:104E2000D5F8903036EA0303F4D14FF488530020CC
:104E3000D5F88020A3401343C5F88030F8BD012980
:104E4000D3F8042806D122F4C01242EAC442C3F8BF
:104E50000428CDE7520341BFD3F8042C22F4C0123A
:104E600042EAC442C3F8042CC2E742F48062C9E7B4
:104E700042F48042C6E742F00402C3E70120DDE7C6
:104E800000600058012930B54FF00205046810D1C8
:104E90008571D4F800190B43C4F80039C4F8C4294B
:104EA000D4F8F03343F4060343F02003C4F8F0339E
:104EB00030BD08444571D4F8001D0B43C4F8003DD3
:104EC000C4F8C42DD4F8F03343F00643ECE770B4D3
:104ED00015461E4699B9022301684371D1F8002591
:104EE0003243C1F80025C1F8C455D1F8F03370BC85
:104EF00043F4064343F02003C1F8F033704770BC1D
:104F0000FFF7C0BF022383710368D3F8042842F07F
:104F10000042C3F80428D3F8002942F00802C3F87D
:104F20000029704769B90368D3F8042442F00042AD
:104F3000C3F80424D3F8002542F00802C3F8002582
:104F40007047012901D1FFF7DDBF0368D3F8042CB6
:104F500042F00042C3F8042CD3F8002D42F00802BE
:104F6000C3F8002D70470000184B10B55A69C9B23C
:104F700042F480325A611A6942F001021A615A6998
:104F800042F480325A6100221A615A615C695C61A4
:104F90001C6944F001041C611A615C6944F48034AA
:104FA0005C611C6944F001041C615C69044344F4C5
:104FB00080345C611A615A61586901435961196909
:104FC00041F0010119611A6110BD00BF0070005865
:104FD00010B50446D8B103680E4A934208D002F1D6
:104FE0007042934204D04FF4A7710B48FDF7E8F8E4
:104FF000237913B9204612F067FD032300202371A3
:1050000001236071A071E071A060237110BD0120C7
:10501000FCE700BF0020005874F402342DE9F04191
:105020000546FEB00C464FF4FC72684654491AF02F
:10503000B3FD1DB901207EB0BDE8F081002CF9D090
:105040002B68504A934208D002F17042934204D038
:1050500040F28B214C48FDF7B3F82368B3F5807F0D
:1050600007D0B3F5007F04D04FF423714648FDF715
:10507000A7F86368013B012B04D940F28D21424817
:10508000FDF79EF8A3683E2B04D940F28E213E48DE
:10509000FDF796F83D4B1A6822F001021A6061682C
:1050A00001291AD1226842F404121A671A6842F0E0
:1050B00001021A60D3F8802042F0B04242F4041298
:1050C000C3F880202268B2F5807FD3F8842054D1C1
:1050D000012908D142F01F0207E00229AAD1226863
:1050E00042F49012E1E742F4F8520026284DC3F84A
:1050F00084202B68254F23F002032B607E602B69F0
:10510000012043F001032B61FFF760FB2E61D4F80F
:105110000880AB685DF8382023F4FE4343EA02239D
:1051200043F02803AB60382108201602FFF71CFF6C
:105130001121E420FFF718FF0DEBC803D3F804801A
:10514000E3204FEA182146F48036FFF70DFF46F0C2
:105150002806E3205FFA88F1FFF706FFAE602368B8
:105160000020B3F5807F0CBF07230F237B602B68E3
:1051700043F002032B6068605DE742F4F852A9E750
:10518000406E02340020005874F40234006000586D
:105190000070005870B50D461446064608B9012047
:1051A00070BD002AFBD00368504A934208D002F138
:1051B0007042934204D04FF444714D48FDF700F81B
:1051C000022D04D940F211314948FCF7F9FF236858
:1051D00033F4403304D040F212314548FCF7F0FF7D
:1051E000022D23681CD033F4403304D040F2163132
:1051F0003F48FCF7E5FF2368B3F5803F02D0B3F5E5
:10520000003F0DD1A368183B152B04D8394A22FA68
:1052100003F3DA0704D440F21B313548FCF7D0FF22
:105220002368B3F5403F0DD06368183B152B04D8B5
:10523000304A22FA03F3DB0704D440F221312C4830
:10524000FCF7BEFF3379013B012B2ED82268B2F563
:10525000403F45D0B2F5003F2BD1002D9FD11346E2
:105260006168B2F5803F43EA0103316802D0B2F5CC
:10527000003F04D1022D2BD0A26843EA0223EDB9EE
:1052800031681D4AD1F8040402401A43C1F80424CD
:105290003368D3F8042122F48042C3F80421D3F800
:1052A000042242F00102C3F80422022300203371D9
:1052B00076E7022D14BF13460023D1E7012D07D155
:1052C000D1F804080C4A02401A43C1F80428DFE769
:1052D000D1F8042C22F03F021343C1F8043CD7E775
:1052E000002D7FF45CAF1346CAE700BF00200058D2
:1052F00074F40234C31F3C00C0C0FCFF032970B526
:1053000006460D46144604D94FF472711548FCF751
:1053100057FF062C04D940F2C9311248FCF750FF60
:10532000F6B1032D08D8DFE805F002090F150E4B82
:10533000240244F001041C61002070BD0A4B2402C9
:1053400044F001041C62F7E7074B240244F0010417
:105350001C63F1E7044B240244F001041C64EBE7F6
:105360000120EAE774F4023400600058F8B50D46F5
:105370001446064608B90120F8BD002AFBD0036890
:10538000464A934208D002F17042934204D040F260
:1053900002414348FCF714FF022D04D940F20341B7
:1053A0003F48FCF70DFF2368032B04D940F204416A
:1053B0003B48FCF705FFBDB9711948793379C0B294
:1053C000022BDAB2D7D110F0FB00D4D14A71336886
:1053D000276815BBD3F8002522F003023A43C3F82F
:1053E000002501234B71C7E7A368092B04D940F2BC
:1053F00007412B48FCF7E4FE63681A0702D1B3F5B6
:10540000004F04D34FF481612548FCF7D9FE022DEB
:10541000D2D1A368062BCFD9ADE7012DD4E901463F
:1054200026D1D3F800291F4D22F003023A43C3F8D6
:105430000029D3F8C02922F00F023243C3F8C02953
:10544000D3F8CC292A402243C3F8CC29F21F012AE1
:1054500006D8D3F8DC292A402243C3F8DC29C0E768
:10546000092EBED1D3F8DC292A4042EA5402F4E7DF
:10547000D3F8002D22F003023A43C3F8002DD3F8ED
:10548000C02D22F00F023243C3F8C02DD3F8CC2D2B
:105490006FF30E022243C3F8CC2DA2E70020005880
:1054A00074F402340080FFFF2DE9F0410229044624
:1054B0000D4616461F46DDF8188004D94FF4C26128
:1054C0001A48FCF77DFE032E04D940F211611748FB
:1054D000FCF776FE38F0040304D040F21261134862
:1054E000FCF76EFE1CB901263046BDE8F0813A0794
:1054F000F9D123686219D3F804325279012AF2D122
:10550000DB07F0D5324629462046FFF765FC064604
:105510000028E8D12946204643463A46FFF7D7FC03
:1055200029462046FFF7FEFCDEE700BF74F4023494
:105530007047704770477047036870B5D3F8F863D9
:1055400004467204D3F8F05312D5690410D5D3F889
:10555000F023002122F48042C3F8F023826842F055
:10556000040282604FF48042C3F8FC23FFF7E1FF9E
:1055700072050AD56B0508D54FF4806223680021B7
:105580002046C3F8FC2312F07FFAB00516D5A90512
:1055900014D52368D3F80025520707D5D3F8F02394
:1055A00022F40642C3F8F023012262714FF4007224
:1055B00000212046C3F8FC2312F076FAF3050AD541
:1055C000E80508D54FF48072236800212046C3F80F
:1055D000FC23FFF7ADFF310416D52A0414D5236848
:1055E0000021D3F8F023204622F40042C3F8F02330
:1055F000A26842F00802A2604FF40042C3F8FC2304
:1056000004236371FFF796FFF3030AD5E80308D577
:105610004FF48032236801212046C3F8FC23FFF7B2
:1056200087FF71030AD56A0308D54FF480222368E7
:1056300001212046C3F8FC2312F026FAB30316D545
:10564000A80314D52368D3F80029510707D5D3F848
:10565000F02322F40602C3F8F0230122A2714FF4D2
:10566000003201212046C3F8FC2312F01DFA320259
:1056700016D52B0214D523680121D3F8F023204638
:1056800022F40002C3F8F023A26842F01002A260E4
:105690004FF40002C3F8FC230423A371FFF74AFF71
:1056A000F0010AD5E90108D54FF080722368022184
:1056B0002046C3F8FC23FFF73BFF72010AD56B01BC
:1056C00008D54FF08062236802212046C3F8FC23EE
:1056D00012F0DAF9B00116D5A90114D52368D3F870
:1056E000002D520707D5D3F8F02322F00642C3F865
:1056F000F0230122E2714FF0007202212046C3F82C
:10570000FC2312F0D1F9002E16DA002D14DA2368EA
:105710000221D3F8F023204622F00042C3F8F02300
:10572000A26842F02002A2604FF00042C3F8FC23BE
:105730000423E371FFF7FEFE700614D5690612D547
:1057400023682046D3F8F02322F04002C3F8F02368
:10575000A26842F00202A2604022C3F8FC230423A4
:105760002371FFF7E8FEB20614D5AB0612D5236805
:105770002046D3F8F02322F02002C3F8F023A268D9
:1057800042F00102A2602022C3F8FC23042323710B
:10579000FFF7D1FE70BD7047704770477047704784
:1057A00070477047B54B2DE9F041D3F8906004463F
:1057B000B202D3F89480D3F88050D3F884700DD51A
:1057C000A9020BD5D3F8802022F40012C3F8802060
:1057D0004FF40012C3F80021FFF7DEFF320715D5A2
:1057E0002B0713D523680321D3F80035204613F087
:1057F000040FA24B1EBFD3F8802022F00802C3F88A
:1058000080200822C3F80021FFF7CBFF700715D5D1
:10581000690713D523680221D3F80035204613F019
:10582000040F964B1EBFD3F8802022F00402C3F869
:1058300080200422C3F80021FFF7B3FFB20715D57B
:10584000AB0713D523680121D3F80035204613F0A8
:10585000040F8A4B1EBFD3F8802022F00202C3F847
:1058600080200222C3F80021FFF79BFFF00715D527
:10587000E90713D523680021D3F80035204613F03B
:10588000040F7E4B1EBFD3F8802022F00102C3F824
:1058900080200122C3F80021FFF783FF320416D5D0
:1058A0002B0414D523680321D3F80035204613F0C8
:1058B000040F724B1EBFD3F8802022F40042C3F8BD
:1058C00080204FF40042C3F80021FFF767FF700407
:1058D00016D5690414D523680221D3F80035204673
:1058E00013F0040F654B1EBFD3F8802022F48042D2
:1058F000C3F880204FF48042C3F80021FFF74EFF29
:10590000B20416D5AB0414D523680121D3F80035B1
:10591000204613F0040F594B1EBFD3F8802022F409
:105920000052C3F880204FF40052C3F80021FFF763
:1059300035FFF00416D5E90414D523680021D3F807
:105940000035204613F0040F4C4B1EBFD3F88020C7
:1059500022F48052C3F880204FF48052C3F8002113
:10596000FFF71CFF320516D52B0514D5236803213C
:10597000D3F80035204613F0040F404B1EBFD3F878
:10598000802022F40062C3F880204FF40062C3F844
:105990000021FFF704FF700516D5690514D52368AB
:1059A0000221D3F80035204613F0040F334B1EBFFD
:1059B000D3F8802022F48062C3F880204FF4806204
:1059C000C3F80021FFF7EBFEB20516D5AB0514D5E1
:1059D00023680121D3F80035204613F0040F274B2C
:1059E0001EBFD3F8802022F40072C3F880204FF449
:1059F0000072C3F80021FFF7D2FEF00516D5E905C5
:105A000014D523680021D3F80035204613F0040F85
:105A10001A4B1EBFD3F8802022F48072C3F8802076
:105A20004FF48072C3F80021FFF7B9FE320615D596
:105A30002B0613D523680321D3F80035204613F035
:105A4000040F0E4B1EBFD3F8802022F08002C3F853
:105A500080208022C3F80021FFF7A2FE700619D52E
:105A6000690617D523680221D3F80035204613F0C4
:105A7000040F024B18BFD3F8802001E000600058EB
:105A80001CBF22F04002C3F880204022C3F800214E
:105A9000FFF786FEB20615D5AB0613D523680121A4
:105AA000D3F80035204613F0040FB94B1EBFD3F8CE
:105AB000802022F02002C3F880202022C3F8002199
:105AC000FFF76EFEF00615D5E90613D52368002111
:105AD000D3F80035204613F0040FAD4B1EBFD3F8AA
:105AE000802022F01002C3F880201022C3F8002189
:105AF000FFF756FE720013D56B0011D5A44B20465C
:105B0000D3F8802022F08042C3F880204FF08042FA
:105B1000C3F80021A36843F48073A360FFF70BFD73
:105B2000B00013D5A90011D5994B2046D3F8802099
:105B300022F00052C3F880204FF00052C3F8002139
:105B4000A36843F40073A360FFF7F5FCF20013D5DC
:105B5000EB0011D58E4B2046D3F8802022F08052E6
:105B6000C3F880204FF08052C3F80021A36843F4AB
:105B70008063A360FFF7DFFC300113D5290111D545
:105B8000834B2046D3F8802022F00062C3F88020A7
:105B90004FF00062C3F80021A36843F40063A360E0
:105BA000FFF7C9FC720113D56B0111D5784B204664
:105BB000D3F8802022F08062C3F880204FF080620A
:105BC000C3F80021A36843F48053A360FFF7B3FC3C
:105BD000B00113D5A90111D56D4B2046D3F8802013
:105BE00022F00072C3F880204FF00072C3F8002149
:105BF000A36843F40053A360FFF79DFCF20113D5A3
:105C0000EB0111D5624B2046D3F8802022F0807240
:105C1000C3F880204FF08072C3F80021A36843F4DA
:105C20008043A360FFF787FC18F0010F14D0F8073A
:105C300012D50121564B2046D3F8802022F00102D4
:105C4000C3F88020C3F80411A36843F40023A360C1
:105C500004232371FFF79FFD18F0020F15D0B90739
:105C600013D54B4B0121D3F88020204622F00202AD
:105C7000C3F880200222C3F80421A36843F48023E0
:105C8000A36004232371FFF786FD18F0040F13D0DF
:105C90007A0711D53E4B0121D3F88020204622F00F
:105CA0000402C3F880200422C3F80421A36843F44B
:105CB0000033A360FFF76FFD18F0080F13D03B0708
:105CC00011D5334B0121D3F88020204622F0080261
:105CD000C3F880200822C3F80421A36843F480336A
:105CE000A360FFF758FD18F0100F13D0F80611D578
:105CF000274B0121D3F88020204622F01002C3F860
:105D000080201022C3F80421A36843F40043A36059
:105D1000FFF741FD18F4807F16D0F90514D51C4B10
:105D20000221D3F88020204622F48072C3F880201C
:105D30004FF48072C3F80421A36843F40023A360E6
:105D400004232371FFF727FD18F4007F16D0BA054E
:105D500014D50F4B0221D3F88020204622F4007284
:105D6000C3F880204FF40072C3F80421A36843F401
:105D70008023A36004232371FFF70DFD18F4806FC7
:105D800017D07B0515D5024B0221D3F8802001E006
:105D900000600058204622F48062C3F880204FF44F
:105DA0008062C3F80421A36843F40033A360FFF7C3
:105DB000F2FC18F4006F14D0380512D51F4B0221E5
:105DC000D3F88020204622F40062C3F880204FF4EC
:105DD0000062C3F80421A36843F48033A360FFF793
:105DE000DAFC18F4805F14D0F90412D5134B0221A9
:105DF000D3F88020204622F48052C3F880204FF44C
:105E00008052C3F80421A36843F40043A360FFF762
:105E1000C2FCF2030FD5EB030DD5084B2046D3F897
:105E2000802022F48032C3F880204FF48032C3F8FF
:105E30000021FFF7B2FCBDE8F08100BF0060005810
:105E400070B50E461446054608B9012070BD002AFB
:105E5000FBD0022904D940F6EF614A48FCF7B0F9BB
:105E6000236933F0804304D04FF46F614548FCF759
:105E7000A7F96368B3F5805F04D340F6F161414848
:105E8000FCF79EF940F6FE72E368013B934204D9A9
:105E900040F6F2613B48FCF793F940F6FE72A368C6
:105EA000013B934204D940F6F3613648FCF788F988
:105EB0002368B3F5805F04D340F6F4613148FCF702
:105EC0007FF92B79022BC0D13EBB2A682E4BD2F82A
:105ED00004110B40B3F5804FB7D0D4E90003D2F8DA
