:020000043400C6
:100400000000183441DC03344D4E00349DDC0334CD
:100410005B4E0034634E00349DDC03346B4E00347D
:1004200000000000000000000000000051C4033480
:10043000734E003400000000E1C30334E5BF033411
:100440009DDC0334000000009DDC03349DDC03349C
:100450009DDC03349DDC03349DDC03349DDC0334DC
:100460009DDC0334000000009DDC03349DDC03347C
:100470009DDC0334CD2300349DDC033400000000F8
:100480009DDC0334000000009DDC03349DDC03345C
:100490009DDC03349DDC03349DDC03349DDC03349C
:1004A0009DDC03349DDC03349DDC03349DDC03348C
:1004B0009DDC03349DDC03349DDC03349DDC03347C
:1004C0009DDC03349DDC03349DDC03349DDC03346C
:1004D0009DDC03349DDC03349DDC03349DDC03345C
:1004E0009DDC0334000000009DDC03349DDC0334FC
:1004F0009DDC03349DDC03349DDC03347B4E0034EF
:100500008F4E0034000000000000000000000000DA
:100510009DDC033469CE02349DDC03349DDC03345E
:100520009DDC03349DDC03349DDC03349DDC03340B
:100530009DDC03349DDC03349DDC03349DDC0334FB
:100540009DDC0334A54E0034B94E00349DDC0334E9
:100550009DDC03349DDC03349DDC03349DDC0334DB
:100560009DDC03349DDC03349DDC03349DDC0334CB
:100570009DDC03349DDC03349DDC03349DDC0334BB
:100580009DDC03349DDC03349DDC03349DDC0334AB
:100590009DDC03349DDC03349DDC03349DDC03349B
:1005A0009DDC03349DDC03349DDC03349DDC03348B
:1005B0009DDC03349DDC03349DDC03349DDC03347B
:1005C0009DDC03349DDC03349DDC03349DDC03346B
:1005D0009DDC03349DDC03349DDC03349DDC03345B
:1005E0009DDC03349DDC03349DDC03349DDC03344B
:1005F0009DDC03349DDC03349DDC03349DDC03343B
:100600009DDC03349DDC03349DDC03349DDC03342A
:100610009DDC03349DDC03349DDC03349DDC03341A
:100620009DDC03349DDC03349DDC03349DDC03340A
:100630009DDC03349DDC03349DDC03349DDC0334FA
:100640009DDC03349DDC03349DDC03349DDC0334EA
:100650009DDC03349DDC03349DDC03349DDC0334DA
:100660009DDC03349DDC03349DDC03349DDC0334CA
:100670009DDC03349DDC03349DDC03349DDC0334BA
:100680009DDC03349DDC03349DDC03349DDC0334AA
:100690009DDC03349DDC03349DDC03349DDC03349A
:1006A0009DDC03349DDC03349DDC03349DDC03348A
:1006B0009DDC03349DDC03349DDC03349DDC03347A
:1006C0009DDC03349DDC03349DDC03349DDC03346A
:1006D0009DDC03349DDC03349DDC03349DDC03345A
:1006E0009DDC03349DDC03349DDC03349DDC03344A
:1006F0009DDC03349DDC03349DDC03349DDC03343A
:100700009DDC03349DDC03349DDC03349DDC033429
:100710009DDC03349DDC03349DDC03349DDC033419
:100720009DDC03349DDC03349DDC03349DDC033409
:100730009DDC03349DDC03349DDC03349DDC0334F9
:0C074000000000009DDC03349DDC03344D
:10075000034613F8012B002AFBD1181A0138704701
:1007600090EDAD5A30B52DED108B90EDA87BB5EE28
:10077000C05A89B08DED007BF1EE10FA90EDA47BAC
:10078000044691ED014A91ED002A91ED02FB91EDB5
:1007900004EB90ED123B90EDAACB90ED16BB8DEDE6
:1007A000047B90EDA66B09DCD0F8C832D648984798
:1007B0004FF0FF3009B0BDEC108B30BDB8EE444BAC
:1007C0009FEDC37BB8EE422B24EE077BB4EEC27BD9
:1007D000F1EE10FA0FDD90ED1C7B9FEDBF1B37EEA5
:1007E000011B9FEDBF7BB4EEC71BF1EE10FA37FE85
:1007F000017B80ED1C7B9FEDBC7B24EE074BB4EEB0
:10080000C24BF1EE10FA10D594ED1C7B9FEDB24B6C
:1008100037EE447B9FEDB64BB4EEC47BF1EE10FA9D
:1008200058BFB0EE474B84ED1C4B94F85050B7EED8
:10083000C55A012D64D19FEDB07B3FEE4E4B84EE47
:1008400007DB3FEE0E4B84EE07ABB0EECD7BB4EE94
:10085000C75BF1EE10FAB0EECA4B3CDBB4EEC45B02
:10086000F1EE10FA37DB002384F8783083EE0C9B2E
:10087000BCEEC99BB8EE499B29EE0C9B0022FCEE16
:10088000C95BB0EE498BCDED035A84F86020002B94
:1008900000F08C80F7EECB0BB7EEC70B8DED066B3F
:1008A00045F016FAB2EE047BB7EEC00AB0EECE5BAE
:1008B00020EE070BB0EECF7BB4EEC57BF1EE10FA65
:1008C0009DED066B34DDB5EEC0FBF1EE10FA34D5CC
:1008D00039EE400B33E0B4EEC45BF1EE10FA25D5EF
:1008E0008AEE0D4B94EDAE5AB0EEC44BB7EEC55A3E
:1008F000B4EEC54BF1EE10FAB4BF01230023B5E707
:10090000B0EECF7BB0EECE4BB4EE474BF1EE10FA2B
:1009100034FE077BB4EEC57B9FED79ABF1EE10FAA8
:10092000B0EE4ADB8CBF012300239FE701239DE744
:10093000B5EEC0EBF1EE10FACAD539EE000B94ED2E
:100940003C7BB4EEC07BF1EE10FA03D5B0EE46BBB3
:10095000B0EE470B94ED3A7BB4EEC07BF1EE10FAAB
:1009600003DDB0EE46BBB0EE470B80EE0C8BBCEE69
:10097000C88BB8EE488B012D2CEE088B16D1B4F83D
:10098000E030022B5FD8FCEEC97BB8EE677B04EB4E
:10099000C30282ED207B82ED268B04EB0312013330
:1009A00082ED2CDB82ED2EABA4F8E03094F87830A9
:1009B0004BBB102204F1880104F180008DED066B21
:1009C0003FF06AFD102204F1A00104F198003FF00D
:1009D00063FDD4E9302384ED249BC4E92C23D4E9BE
:1009E000322384ED2A8BC4E92E23D4E934239DEDF0
:1009F000066BC4E93023D4E9362384ED34DB84ED7F
:100A000036ABC4E93223FCEEC87B17EE903A94ED86
:100A10001A7B039AB5EEC07B93421CBF012384F876
:100A20006030F1EE10FA71DD012384F860309DED45
:100A3000007BB4EEC7BBF1EE10FA79D59DED047BD7
:100A40003BEE076B66E094ED2A7B94EDAF5A38EEEF
:100A5000477BB7EEC55AB0EEC77BB4EEC57BF1EE6F
:100A600010FA2CDB94ED287B38EE477BB0EEC77B89
:100A7000B4EEC75BF1EE10FA21DD94ED320B94ED8C
:100A8000307B3AEE400B3DEE477B20EE000BA7EEAD
:100A9000070B8DED066B45F0F3F894EDB07AB7EEE9
:100AA000C77AB4EEC70BF1EE10FA9DED066B06D5D2
:100AB000FCEEC97B84F87850B8EE678B76E794F843
:100AC0007830012B04BF002384F878306EE700BF34
:100AD0009A9999999999A93F7B14AE47E17A843FF5
:100AE000343333333333C33F333333333333C33F9D
:100AF000111111111111B13FCD3B7F669EA0F63F40
:100B000000000000000000007376113494F860309B
:100B1000002B8CD188EE0C7BBCEEC77BB8EE477BFC
:100B200027EE0C7B84ED166B84ED127B012041E6F1
:100B30009DED006BEEE790ED1A6BB5EEC06B90ED9E
:100B4000124BF1EE10FA90EDAA5BB0EE467BDFBFE0
:100B500084EE057BBCEEC77BB8EE477B27EE057BBA
:100B6000B7EEC77B90ED3C5BB7EEC74AB4EEC54B22
:100B7000F1EE10FAC8BFB7EEC57B90ED3A5BB7EE69
:100B8000C74AB4EEC54BF1EE10FA48BFB7EEC57BCD
:100B9000B7EEC75AD0F8743230B580ED125B93EDE2
:100BA000005AD0EDAC7AB4EEC75AF1EE675AF1EEC6
:100BB00010FA4FF00001B0F8F83075FEA77A013B4B
:100BC0008AB2934205D8442202FB030303F59073D3
:100BD00011E000EB8204D4ED445A77EEA55AF4EE0E
:100BE000C75AF1EE10FA01F10101E9DB442303FBDE
:100BF000020202F59073B5EEC06BF1EE10FAC0F888
:100C0000743205DC93ED007AB7EEC77A80ED127B83
:100C10005A6803F1380142609A6803F12404826043
:100C2000DA68C2601A69026100F138025D690C334A
:100C30004561DD680C30C5601D69A342056151F84E
:100C4000045B42F8045BF1D1012030BD10B50446CD
:100C500090B070B10023084C40212370C4F8C80242
:100C6000064B6846064A44F0D5FF6846D4F8C832B9
:100C70009847204610B010BD28B91134B8A41134DB
:100C8000B3761134002814BF01204FF0FF307047B5
:100C900080ED000A30B50C6844604C6884608C6854
:100CA000C460C96802F12404016100F138011568CB
:100CB0000C32456152F8085C0C30C56052F8045C97
:100CC000A242056153F8045B41F8045BEFD130BDEB
:100CD0002DE9F04F2DED068B0E46B0EE409BB0EEA9
:100CE000418B1D460446C7B0002800F08F819FED60
:100CF000CCAB80ED12AB0020CF494FF00008C4E927
:100D00001601C4E9A601C4E9AA01CC49DFF8609341
:100D1000C4F8B0124FF07E51C4F8B4124FF07C51B9
:100D2000C4E91A890FF20039D9E90089C4E91C899C
:100D3000C4E9A4894FF00008C4F8B812C049DFF82C
:100D40003493C4F8BC124FF07F510023C4E9A88942
:100D500001274FF00008C4F8C012711EDFF8189385
:100D600088B20428C4E9A0890FF2C429D9E900890E
:100D700084F86030C4E9A289A4F8E03084F87830BF
:100D8000A4F8787214D905234FF48071AD4A06A8EF
:100D900044F040FFD4F8C83206A8984784F8507051
:100DA000204647B0BDEC068BBDE8F04FFFF7C3BE51
:100DB00095ED007AB7EEC77AB4EEC70BF1EE10FAF4
:100DC00012DDD4F8C832A048984795ED007AB7EE06
:100DD000C77A8DED009B8DED027B9C4A4FF48071AC
:100DE00006A844F017FFD5E74FF0440C0CFB06585B
:100DF00018ED117AB7EEC77AB4EEC71BF1EE10FA10
:100E000041D5D4F8C8329248984798ED007AB7EEA9
:100E1000C77A8DED008B8DED027B8E4ADEE70CFBF1
:100E200008F705EB070944372F4499ED007AD7ED11
:100E3000007AB4EEE77AF1EE10FA08F1010A00F157
:100E4000010021DBD4F8C8328348984797ED007A37
:100E5000B7EEC77A8DED047BCDF808A099ED007A46
:100E6000B7EEC77A43468DED007B7C4A4FF4807124
:100E700006A844F0CFFED4F8C83206A8984701234C
:100E800084F850308CE718461FFA80F84145C6D8E0
:100E900000234FF0440CB01E9FB2B94239D884ED04
:100EA0003A9B84ED3C8B0020A4F8F86083B2994211
:100EB00000F1010000F28B800027B84604F1FC0A23
:100EC00004F5907905EB070B09EB0700442259461E
:100ED0003DF07CFFDBF8003008F101084AF8043BE4
:100EE0001FFA88F39E4207F14407EBD8731E9BB2AA
:100EF000002E03F1010314BF1A460122C4F87492B4
:100F000004F5B271013A6AD1012384F8503023709C
:100F100046E702EB8709B842D9ED007A4FEA870825
:100F200007F1010A1ED908F10408904498ED007AEF
:100F3000B4EEE77AF1EE10FA14D8D4F8C832484883
:100F4000984798ED007AB7EEC77A8DED047BCDF81F
:100F500008A099ED007AB7EEC77A3B468DED007B8D
:100F6000404A83E70CFB07F805EB080A9AED007A84
:100F7000B4EEE77AF1EE10FA08F14408A84408DA72
:100F800098ED007AB4EEE77AF1EE10FA03F101037E
:100F900082D8D4F8C8323448984798ED007AB7EE32
:100FA000C77A8DED047B9AED007AB7EEC77A8DEDA6
:100FB000027B99ED007AB7EEC77A3B468DED007B58
:100FC0004FF48071294A06A844F024FE53E702EB4F
:100FD00083073F6804EB8303C3F8107166E7D4F816
:100FE000743291ED006A93ED007AB7EEC66AB7EEFF
:100FF000C77A36EE4A6B37EE4A7BB4EEC76BF1EE3A
:1010000010FA48BFC4F8741244317BE74FF0FF3048
:1010100047B0BDEC068BBDE8F08F00BFAFF300809A
:10102000000000000088B3409A9999999999B93FB6
:101030000000000000A06E400000F03F00004842A9
:1010400000002F43C3761134077711348E771134A3
:10105000EC77113474781134D17811343579113436
:101060008D791134FC791134667A1134BD7A1134DA
:101070000000F0BF000008400000244030B50546E5
:1010800014468DB052B9D0F8C8321D489847D5F8EB
:10109000C8321C48984720460DB030BD93ED042B54
:1010A00093ED021B93ED000B0AAA08A906A800F015
:1010B0002FF8DDE90823CDE90223DDE90A23CDE994
:1010C0000423012398420446CDE90033DFD1694669
:1010D0002846FFF745FB0128044603D0D5F8C8325F
:1010E0000948D7E795F86030012BD4D12846FFF79F
:1010F00022FD01280446CED0D5F8C8320348C9E7FE
:10110000437B1134A47B1134CD7B1134017C113429
:10111000B5EEC00BF1EE10FA1FB509D4B5EEC01B49
:10112000F1EE10FA04D4B5EEC02BF1EE10FA0DD5A5
:101130008DED022B8DED001B53EC102B44483DF040
:1011400081F84FF0FF3005B05DF804FB9FED327B76
:10115000B4EEC70BF1EE10FA09DCB4EEC71BF1EEEA
:1011600010FA04DCB4EEC72BF1EE10FA07DD8DEDBA
:10117000022B8DED001B53EC102B3648DFE728B116
:1011800089B1B2B93449354B084607E071B13349EA
:101190003148002A304A314B18BF134602463048C6
:1011A0003DF050F8CDE72C492C48F2E72B49084692
:1011B000EFE79FED1B7B9FED1C6B21EE077BB3EEF2
:1011C000005BA0EE067B9FED1A6BA2EE057BA7EEFF
:1011D000065B9FED197B80ED005B27EE417BBBEE4C
:1011E0000A5BA0EE057B9FED165BA2EE057B27EE6A
:1011F000067B81ED007B9FED147B27EE411BB2EE59
:10120000047BA0EE051BA2EE471B21EE061B01206E
:1012100082ED001B97E700BF0000000000E06F4078
:101220000000000000A06340000000000080474074
:10123000000000000000703F0000000000805540EA
:101240000000000000005C400000000000805940E9
:101250003E7C11347C7C1134387C1134367C113462
:10126000BC7C1134000000002DE9F0419846436D2C
:101270000F460646069923B9C8F800700A60BDE813
:10128000F081214D5B00B5FBF3F59542F4D2B2FB42
:10129000F5F407EE902A04FB0554B8EE677A07EEE2
:1012A000904ADFED1A6AF8EE677A67EEA67AB4EE36
:1012B000E77AF1EE10FADFD5621B0A60013207EE21
:1012C000902AF8EE677A87EE270AB7EEC00A40F058
:1012D000D3FC9FED0B7B20EE070BBCEEC00B10EE9A
:1012E000103A3B441F46C8F80030F36CBB4294BF31
:1012F000C8F80030C8F80070C1E700BFAFF3008045
:10130000000000000088D34040420F003333733F99
:1013100007EE901A9FED287AF8EE677A70B587EE9F
:10132000871A2DED028B08EE102AB7EEC11AB2EE25
:10133000040B05461C46069E40F01AF8B8EE488B92
:1013400028EE000BFCEEC07B17EE902A696CB8EE1D
:10135000677A914216D900232360C6ED007A6B6C40
:10136000DFED166A07EE903AF8EE677A67EEA67A36
:10137000B4EE677AF1EE10FAC8BF1A463260BDECDF
:10138000028B70BD07EE901AF8EE677A87EE270A97
:101390003160B7EEC00A40F06FFC9FED057B20EE98
:1013A000070BBCEEC00B84ED000AE8E7AFF300804A
:1013B000000000000088D34000409C4648E17A3F8E
:1013C00010B5044690B060B10023074C4021237053
:1013D000A065064B6846064A44F01CFC6846A36DAF
:1013E0009847204610B010BDF8BB1134BEA411348C
:1013F000067D1134002814BF01204FF0FF307047E4
:1014000038220A23C0E9042364222D237821C0E96D
:10141000062340F2DC5330B5C0E9081341F2707482
:1014200042F6E063C0E90A430BA5D5E90045052370
:1014300048F2E80103650023C0E910310121C0E949
:101440000C4507A5D5E90045C0E91212C0E90E45D3
:10145000436530BDAFF3008000000040E17A943F67
:10146000000000E04D62703F10B5044620B1FFF768
:10147000C7FF0120207010BD4FF0FF30FBE72DE9C2
:10148000F04F15469B46044687B0002800F02381A4
:101490000378012B1AD102230370D4F85480B8F1D9
:1014A000000F17D0904B4FEA4802B3FBF2F3A66C43
:1014B0008E4211D2626CAA420ED9B5FBF3F203FB45
:1014C00012534BB1C4E90156012006E1022BE4D0CE
:1014D000002002E10123EAE70DF114092A4604ABDA
:1014E0002046CDF800900391FFF712FFDDE904726A
:1014F000D4F810C0B6EE005B07EE90CAB8EE676A8B
:1015000007EE90BAB8EEE77BB7EEC66A37EE057B1A
:1015100086EE070B236DB7EEC00B9B45039948D2AF
:10152000F0EE007AB4EEE70AF1EE10FA41D4616C05
:10153000B7EE007A8A4220D2012A134638BF01232F
:1015400007EE903AF8EEE77A67EE807AFDEEE77AFA
:1015500017EE903A8B42C1BF07EE901AB8EEE76AD9
:1015600007EE902AF8EE676AC3BFC6EE267A0B46EE
:1015700080EE270AB0EE470A6360B4EEC70AF1EEC8
:1015800010FAA1DDB7EEC00A40F076FBB3EE047BA3
:1015900020EE070B9FED527B20EE070BBDEEC00B3C
:1015A00010EE103AE26C3B449342D4BFA360A260B9
:1015B0008AE7ACEB0B0383EAE37EAEEBE37E0393B7
:1015C000E3699E4559D8D4F824E00398A3694343BE
:1015D000606900EB0C0ADA45DFF814A155D207EE7A
:1015E00090EA9FED427AF8EEE77A67EE877A07EEA7
:1015F000103AF1EE676AB8EEC77AB4EEE67AF1EE29
:1016000010FA04D5FDEEE77A17EE903A5B42002B14
:1016100050D0BE4244D1616C8A4201D3002B3FDAE4
:10162000039807EE902A02FB000006EE900A002BBA
:10163000B8EEE77BB8EEE66B2FDA94ED0E5BA5EE25
:10164000067BBDEEC77B17EE102A236CA7609A427B
:10165000B8BF1A468A42D4BF626061602046CDF8A6
:10166000009004ABD4E90121FFF7FEFD049B059D2A
:10167000A3606560CAF8608026E7236A9E452CBF98
:10168000D4F82CE0D4F828E09FE7ACEB000CDC4564
:1016900010DD7345A8BF7346B9E794ED0C5BCEE748
:1016A0001F44BE4203DCE66CBE42A8BF3E46C4E90E
:1016B0000126D3E7DAF8603098450AD02A4620465A
:1016C000CDF8009004ABB8F1000FCDD1FFF720FEAC
:1016D000CCE7A160CDE74FF0FF3007B0BDE8F08F59
:1016E0000000000000408F4040420F009A99593F8F
:1016F000F8BB113481F0004102E000BF83F00043E9
:1017000030B54FEA41044FEA430594EA050F08BF9C
:1017100090EA020F1FBF54EA000C55EA020C7FEA60
:10172000645C7FEA655C00F0E2804FEA5454D4EBDD
:101730005555B8BF6D420CDD2C4480EA020281EAA7
:10174000030382EA000083EA010180EA020281EADF
:101750000303362D88BF30BD11F0004F4FEA013131
:101760004FF4801C4CEA113102D0404261EB410140
:1017700013F0004F4FEA03334CEA133302D05242C6
:1017800063EB430394EA050F00F0A780A4F1010482
:10179000D5F1200E0DDB02FA0EFC22FA05F28018BC
:1017A00041F1000103FA0EF2801843FA05F35941A2
:1017B0000EE0A5F120050EF1200E012A03FA0EFC21
:1017C00028BF4CF0020C43FA05F3C01851EBE3714B
:1017D00001F0004507D54FF0000EDCF1000C7EEB68
:1017E00000006EEB0101B1F5801F1BD3B1F5001FA6
:1017F0000CD349085FEA30004FEA3C0C04F10104C5
:101800004FEA445212F5800F80F09A80BCF1004FED
:1018100008BF5FEA500C50F1000041EB045141EA6F
:10182000050130BD5FEA4C0C404141EB0101013C38
:1018300028BFB1F5801FE9D291F0000F04BF014627
:101840000020B1FA81F308BF2033A3F10B03B3F1F9
:1018500020020CDA0C3208DD02F1140CC2F10C0289
:1018600001FA0CF021FA02F10CE002F11402D8BFE7
:10187000C2F1200C01FA02F120FA0CFCDCBF41EAB3
:101880000C019040E41AA2BF01EB0451294330BD82
:101890006FEA04041F3C1CDA0C340EDC04F114045F
:1018A000C4F1200220FA04F001FA02F340EA030036
:1018B00021FA04F345EA030130BDC4F10C04C4F17C
:1018C000200220FA02F001FA04F340EA030029465C
:1018D00030BD21FA04F0294630BD94F0000F83F4A6
:1018E000801306BF81F480110134013D4EE77FEA89
:1018F000645C18BF7FEA655C29D094EA050F08BFD5
:1019000090EA020F05D054EA000C04BF19461046B5
:1019100030BD91EA030F1EBF0021002030BD5FEAF9
:10192000545C05D14000494128BF41F0004130BD21
:1019300014F580043CBF01F5801130BD01F0004575
:1019400045F0FE4141F470014FF0000030BD7FEAE8
:10195000645C1ABF194610467FEA655C1CBF0B46E3
:10196000024650EA013406BF52EA033591EA030FFA
:1019700041F4002130BD00BF90F0000F04BF0021F2
:10198000704730B54FF4806404F132044FF0000525
:101990004FF0000150E700BF90F0000F04BF00219E
:1019A000704730B54FF4806404F1320410F0004504
:1019B00048BF40424FF000013EE700BF42004FEAFF
:1019C000E2014FEA31014FEA02701FBF12F07F437C
:1019D00093F07F4F81F06051704732F07F4208BF33
:1019E000704793F07F4F04BF41F40021704730B53A
:1019F0004FF4607401F0004521F000411CE700BF86
:101A000050EA010208BF704730B54FF000050AE008
:101A100050EA010208BF704730B511F0004502D509
:101A2000404261EB41014FF4806404F132045FEA0B
:101A3000915C3FF4D8AE4FF003025FEADC0C18BFB4
:101A400003325FEADC0C18BF033202EBDC02C2F1A6
:101A5000200300FA03FC20FA02F001FA03FE40EA38
:101A60000E0021FA02F11444BDE600BF7BB972B941
:101A70000029BEBF00204FF0004106E008BF00284B
:101A80001CBF6FF000414FF0FF3000F057B8ADF1D0
:101A9000080C6DE904CE002909DB002B1ADB43F0AA
:101AA00039FFDDF804E0DDE9022304B0704740426D
:101AB00061EB4101002B1BDB43F02CFFDDF804E060
:101AC000DDE9022304B0404261EB4101524263EB85
:101AD00043037047524263EB430343F01BFFDDF8BF
:101AE00004E0DDE9022304B0404261EB41017047AC
:101AF000524263EB430343F00DFFDDF804E0DDE900
:101B0000022304B0524263EB4303704753B94AB90E
:101B1000002908BF00281CBF4FF0FF314FF0FF30F5
:101B200000F00CB8ADF1080C6DE904CE43F0F2FE04
:101B3000DDF804E0DDE9022304B07047704700BF20
:101B40000348044B834202D0034B03B1184770474C
:101B500028B9113428B9113400000000064B074998
:101B6000C91A891048BF0131491003D0044B0BB189
:101B700001481847704700BF28B9113428B91134FB
:101B80000000000010B5064C237843B9FFF7D8FFDA
:101B9000044B13B10448AFF300800123237010BD40
:101BA0005CBC1134000000001060043408B5054B23
:101BB0001BB105490548AFF30080BDE80840FFF7B9
:101BC000CDBF00BF0000000060BC113410600434C1
:101BD00080B483B000AF0346FB80B7F90630002B1A
:101BE0000BDBFB8803F01F020749B7F906305B09DE
:101BF000012000FA02F241F8232000BF0C37BD4655
:101C00005DF8047B704700BF00E100E080B483B062
:101C100000AF03463960FB80B7F90630002B0ADBC2
:101C20003B68DAB20C49B7F906301201D2B20B4464
:101C300083F800230AE03B68DAB20849FB8803F026
:101C40000F03043B1201D2B20B441A7600BF0C37CB
:101C5000BD465DF8047B704700E100E000ED00E068
:101C600080B485B000AF7860074A7B68C2F8843AD8
:101C7000054BD3F88432FB60FB6800BF1437BD46C8
:101C80005DF8047B704700BF0080025680B485B0C9
:101C900000AF7860074A7B68C2F84C3A054BD3F82E
:101CA0004C32FB60FB6800BF1437BD465DF8047B17
:101CB000704700BF0080025680B485B000AF7860E6
:101CC000074A7B68C2F88C3A054BD3F88C32FB602C
:101CD000FB6800BF1437BD465DF8047B704700BF4A
:101CE0000080025680B485B000AF7860074A7B68F8
:101CF000C2F8903A054BD3F89032FB60FB6800BF06
:101D00001437BD465DF8047B704700BF0080025663
:101D100080B485B000AF7860074A7B68C2F8543A57
:101D2000054BD3F85432FB60FB6800BF1437BD4647
:101D30005DF8047B704700BF0080025680B485B018
:101D400000AF7860074A7B68C2F8943A054BD3F835
:101D50009432FB60FB6800BF1437BD465DF8047B1E
:101D6000704700BF0080025680B485B000AF786035
:101D7000074A7B68C2F8583A054BD3F85832FB60E3
:101D8000FB6800BF1437BD465DF8047B704700BF99
:101D90000080025680B483B000AF7860044A7B684C
:101DA000C2F8183A00BF0C37BD465DF8047B704797
:101DB0000080025680B483B000AF7860064B03F514
:101DC00080531A467B68C2F8183200BF0C37BD46F4
:101DD0005DF8047B704700BF0080025680B485B078
:101DE00000AF7860074A7B68C2F8983A054BD3F891
:101DF0009832FB60FB6800BF1437BD465DF8047B7A
:101E0000704700BF0080025680B485B000AF786094
:101E1000074A7B68C2F85C3A054BD3F85C32FB603A
:101E2000FB6800BF1437BD465DF8047B704700BFF8
:101E30000080025680B485B000AF7860074A7B68A6
:101E4000C2F89C3A054BD3F89C32FB60FB6800BF9C
:101E50001437BD465DF8047B704700BF0080025612
:101E600080B485B000AF7860074A7B68C2F8603AFA
:101E7000054BD3F86032FB60FB6800BF1437BD46EA
:101E80005DF8047B704700BF0080025680B483B0C9
:101E900000AF7860044A7B68C2F8203A00BF0C3774
:101EA000BD465DF8047B70470080025680B483B065
:101EB00000AF7860064B03F580531A467B68C2F882
:101EC000203200BF0C37BD465DF8047B704700BF71
:101ED0000080025680B485B000AF7860074A7B6806
:101EE000C2F8A03A054BD3F8A032FB60FB6800BFF4
:101EF0001437BD465DF8047B704700BF0080025672
:101F000080B485B000AF7860074A7B68C2F8A43A15
:101F1000054BD3F8A432FB60FB6800BF1437BD4605
:101F20005DF8047B704700BF0080025680B485B026
:101F300000AF7860074A7B68C2F8A83A054BD3F82F
:101F4000A832FB60FB6800BF1437BD465DF8047B18
:101F5000704700BF0080025680B485B000AF786043
:101F6000074A7B68C2F86C3A054BD3F86C32FB60C9
:101F7000FB6800BF1437BD465DF8047B704700BFA7
:101F80000080025680B485B000AF7860074A7B6855
:101F9000C2F8AC3A054BD3F8AC32FB60FB6800BF2B
:101FA0001437BD465DF8047B704700BF00800256C1
:101FB00080B485B000AF7860074A7B68C2F8B43A55
:101FC000054BD3F8B432FB60FB6800BF1437BD4645
:101FD0005DF8047B704700BF0080025680B485B076
:101FE00000AF7860074A7B68C2F8B83A054BD3F86F
:101FF000B832FB60FB6800BF1437BD465DF8047B58
:10200000704700BF0080025680B485B000AF786092
:10201000074A7B68C2F8BC3A054BD3F8BC32FB6078
:10202000FB6800BF1437BD465DF8047B704700BFF6
:102030000080025680B485B000AF7860074A7B68A4
:10204000C2F8883A054BD3F88832FB60FB6800BFC2
:102050001437BD465DF8047B704700BF0080025610
:1020600080B483B000AF7860064B1B6A23F4403223
:1020700004497B6813430B6200BF0C37BD465DF813
:10208000047B70470080025680B483B000AF786054
:10209000064B1B6A23F0407204497B6813430B62B2
:1020A00000BF0C37BD465DF8047B704700800256C8
:1020B00080B584B000AF3F4B1B683E4A43F40053E9
:1020C00013600020FFF7CCFF0020FFF7DDFF05F0D5
:1020D000C9FC394B5B6903F40033002B1BD1BFF300
:1020E0004F8F00BFBFF36F8F00BF334B0022C3F889
:1020F0005022BFF34F8F00BFBFF36F8F00BF2E4B37
:102100005B692D4A43F400335361BFF34F8F00BF27
:10211000BFF36F8F00E000BF264B1B68254A43F4D6
:1021200080531360244B5B6903F48033002B38D158
:10213000214B0022C3F88420BFF34F8F00BF1E4BFA
:10214000D3F88030FB60FB685B0BC3F30E03BB600E
:10215000FB68DB08C3F309037B60BB685A0143F6E5
:10216000E07313407A68920713491343C1F8603251
:102170007B685A1E7A60002BEFD1BB685A1EBA608A
:10218000002BE5D1BFF34F8F00BF0B4B5B690A4AB1
:1021900043F480335361BFF34F8F00BFBFF36F8FA2
:1021A00000E000BF00F068FA034618461037BD464D
:1021B00080BD00BF00E001E000ED00E080B584B02C
:1021C00000AF4FF00040FFF74BFE4FF00040FFF72D
:1021D0005DFE4FF00040FFF769FE0120FFF756FD5E
:1021E0000220FFF753FD0420FFF750FD0820FFF702
:1021F0004DFD4FF48050FFF78BFD3B1D00221A6010
:102200005A609A600D4B7B603B1D18460EF0D0FE65
:102210000B4B7B603B1D18460EF0CAFE094B7B60E2
:102220003B1D18460EF0C4FE074B7B603B1D184655
:102230000EF0BEFE00BF1037BD4680BD0031025219
:1022400080310252003202528032025280B500AF19
:102250002BF0D8FD2BF0E4FD00BF80BD80B582B02F
:1022600000AF4FF40070FFF77FFD3B4600221A607D
:102270005A6002233B6003237B603B4619460120E2
:102280000EF088FA3B46194608200EF083FA3B46CA
:10229000194609200EF07EFA3B4619460A200EF038
:1022A00079FA3B4619460B200EF074FA3B46194664
:1022B00004200EF06FFA3B46194607200EF06AFA2A
:1022C000032119480EF010FB032118480EF00CFBF7
:1022D000032117480EF008FB032116480EF004FBFB
:1022E000032115480EF000FB032114480EF0FCFA00
:1022F000032113480EF0F8FA032112480EF0F4FA05
:10230000032111480EF0F0FA032110480EF0ECFA08
:1023100003210F480EF0E8FA032104200EF0E4FA3E
:1023200000BF0837BD4680BD040000300300003008
:10233000020000300A000030050000301C000020C0
:102340001D000020060000300700003008000030AB
:102350001800001080B500AF20F068FB20F0A2FB51
:10236000042020F039FB20F08DFB00BF80BD000071
:1023700080B500AF084B094A1A60074820F0B4FA4C
:102380000346002B05D0064B064AA42106483CF024
:10239000F1FC00BF80BD00BF0CBD113400400358EC
:1023A000C06004344C210534C460043480B500AFEF
:1023B0004FF48060FFF7D8FC4FF48060FFF7EAFC31
:1023C0004FF48060FFF7F6FC00BF80BD80B400AF23
:1023D00000BFFDE72DE9B043ADF51A7D00AF07F56D
:1023E0000A734022002118463CF080F807F5C873B4
:1023F0009822002118463CF079F807F51A73A3F5E6
:102400001A7318464FF4C8731A4600213CF06EF850
:10241000012021F0F3FC012004F0CCFF0023C7F8D9
:1024200090310223C7F8B8310023C7F8BC3102232A
:10243000C7F8C0311923C7F8C8310023C7F8C43121
:102440000123C7F8CC310123C7F8D0310223C7F8E4
:10245000D4310023C7F8D8310823C7F8DC31002372
:10246000C7F8E0317D23C7F8E4310123C7F8E8312C
:102470000123C7F8EC310223C7F8F0310023C7F875
:10248000F4310823C7F8F831E123C7F800320023FC
:10249000C7F8FC310123C7F804320223C7F8083219
:1024A0000223C7F80C320023C7F810320823C7F8FC
:1024B00014320023C7F81832E123C7F81C32062370
:1024C000C7F820320623C7F8243207F5C873184628
:1024D0000FF052FA0346002B01D000BFFDE77F2327
:1024E000C7F828324FF44033C7F82C324FF040730E
:1024F000C7F830320023C7F848320123C7F84C32FE
:102500000023C7F850320223C7F854324FF08053EB
:10251000C7F858320123C7F85C324FF00053C7F8B0
:1025200060320123C7F864324FF48013C7F83432A5
:102530000023C7F838320023C7F83C320023C7F81D
:1025400040320023C7F8443207F50A7318460FF0EB
:1025500033FF0346002B01D000BFFDE707F51A73D8
:10256000A3F51A714FF000024FF00003C1E90023F8
:1025700007F51A73A3F51A73D3E90023904643F4C1
:10258000800907F51A73A3F51A73C3E9008907F5E3
:102590001A73A3F51A73144AC3F8AC2007F51A731B
:1025A000A3F51A73D3E90023144643F4000507F595
:1025B0001A73A3F51A73C3E9004507F51A73A3F557
:1025C0001A730A4AC3F8B0203B46184612F000FBC3
:1025D0000346002B01D000BFFDE700BF07F51A77C7
:1025E000BD46BDE8B08300BF14000003140400031F
:1025F00080B586B000AF1020FFF7AEFC1020FFF7CB
:1026000003FC0223BB600123FB6002233B616023C8
:102610007B6007237B613B1D194614480AF01CFBB5
:10262000134B144A1A60124B4FF4E1325A60104BAC
:102630000C225A610E4B00221A610D4B00229A6047
:102640000B4B0022DA600A4B00229A61084B4FF4D0
:102650000042DA6106481EF0E1FB0346002B01D080
:1026600000BFFDE700BF1837BD4680BD0010025611
:1026700078BC11340010005280B586B004AF104B06
:102680000293104B01930123009300234FF48062C7
:102690000D490E4837F0F0FE78607B68002B06D1BC
:1026A0000B4B0C4A4FF4A2710B483CF063FB38F023
:1026B00007F90A4B074A40F2471107483CF05AFB1A
:1026C00018BD113478BD1134D0600434E1260034D3
:1026D000D860043458210534C4600434C060043424
:1026E00080B586B000AF786005F078FB014607F151
:1026F0000C0307F110024FF0FF3005F077FB0023C9
:10270000FB820CE03969FA68B7F91630184605F013
:10271000F1FAB7F916309BB201339BB2FB82B7F9DD
:102720001630C22BEEDDFFF755FE39F0AFFBFFF799
:102730005FFFFFF743FD02F01DFBFFF719FEFFF7F8
:1027400009FEFFF783FD002023F000FB002023F0AB
:10275000CBFB01233B7201237B7207F1080319466F
:10276000002023F011F9002023F0F8F9FFF776FD9F
:10277000FFF71CFE4FF0FF30FFF772FA4FF0FF300B
:10278000FFF79AFA4FF0FF30FFF7ACFA4FF0FF3047
:10279000FFF7D4FA4FF0FF30FFF720FB4FF0FF3088
:1027A000FFF748FB4FF0FF30FFF794FB4FF0FF308F
:1027B000FFF7A6FB4FF0FF30FFF7B8FB4FF0FF30FD
:1027C000FFF7E0FB4FF0FF30FFF7F2FB4FF0FF3079
:1027D000FFF704FC4FF0FF30FFF716FC4FF0FF301F
:1027E000FFF728FC02F00AF9002037F0C5FF00BF10
:1027F0001837BD4680BD80B5E8B000AF07F5D0738F
:10280000A3F5CE73186007F5D073A3F5CC73184603
:102810004FF4C8731A4600213BF068FE07F5D073E9
:10282000A3F5CC714FF010024FF00003C1E9002373
:1028300007F5D073A3F5CC734FF40012C3F8C8208A
:1028400007F5D073A3F5CC734FF08052C3F88820FE
:1028500007F5D073A3F5CC730322C3F88C2007F1DE
:102860000803184612F0B4F9034687F89F3197F829
:102870009F31002B02D097F89F3127E007F5D073E6
:10288000A3F5CC714FF008024FF00003C1E900231B
:1028900007F5D073A3F5CC730022C3F8902007F599
:1028A000D073A3F5CC732822C3F8942007F1080352
:1028B000184612F08DF9034687F89F3197F89F313B
:1028C000002B02D097F89F3100E00023184607F54F
:1028D000D077BD4680BD80B582B000AF78604FF440
:1028E0008060FFF7D3F94FF08040FFF7B9FA4FF05F
:1028F0008040FFF7CBFA4FF08040FFF7D7FA00BFD8
:102900000837BD4680BD80B483B000AF78603960C1
:1029100000BE00BFFDE7000080B582B000AF786068
:102920007B681B68104A934219D14FF48010FFF75F
:10293000ADFA4FF48010FFF7B9FA4FF48010FFF7AB
:102940008FFA06214120FFF761F94120FFF740F996
:1029500005214220FFF75AF94220FFF739F900BF5D
:102960000837BD4680BD00BF0040035880B485B025
:1029700000AF78607B681B7D002B05D07B685B68AF
:10298000FB60FB681B6801E07B685B6818461437D6
:10299000BD465DF8047B704780B582B000AF7860BB
:1029A0007868FFF7E3FF02467B689B68134418468C
:1029B0000837BD4680BD80B483B000AF78607B68C7
:1029C000DA687B689B68D31A18460C37BD465DF8F9
:1029D000047B704780B400AF01231846BD465DF804
:1029E000047B704780B586B000AFF8607A603B60CA
:1029F0000B46FB72FB7A0021184621F029FA786118
:102A00007B69002B06D00B4B0B4A4FF4CB710B4864
:102A10003CF0B0F9FB68FA7A1A70FB687A689A6041
:102A2000FB6800225A60FB683A68DA6000BF18371A
:102A3000BD4680BD04610434C02105341C610434EA
:102A400080B584B000AF78607B681B78184621F0B1
:102A50008BFA0346FB607B685B68FA689A420CD08D
:102A6000FB68002B09D07B689B68002B05D07B6836
:102A70009B687A68D268104698477B68FA685A6003
:102A800000BF1037BD4680BD80B582B000AF786012
:102A9000E022002178683BF029FD00BF0837BD46E1
:102AA00080BD2DE9B04F86B000AFF860FA68FB68D2
:102AB00002F1380403F120050FCD0FC495E803009F
:102AC00084E8030004F0EAFC034600223B607A60DD
:102AD000FB68D7E90001C3E90801FB68D3E90845B1
:102AE00038F09EFE0346002298469146B4EB080A51
:102AF00065EB090BFB68C3E90AAB04F053FC024623
:102B0000FB681A63FB689A6CFB681B6ED31AB3F5FB
:102B10007A7F26D300237B611FE07B69C3F1060225
:102B20007B69C3F10701F8680B465B000B44DB00CF
:102B3000034403F12000F96813465B001344DB00F3
:102B40000B44203304461D460FCD0FC495E8030007
:102B500084E803007B6901337B617B69052BDCDD45
:102B600000E000BF1837BD46BDE8B08F0000000090
:102B70002DE9F04F2DED028B8BB000AF78623962FA
:102B8000FA61BB613B6A002B2CD07B6AD3E90A0156
:102B90007B6AD3E91023861A3E6161EB03037B61F4
:102BA000D7E90401FEF72CFF41EC160B9FED407BAB
:102BB00026EE078B7B6AD3E908017B6AD3E90E23F3
:102BC000861ABE6061EB0303FB60D7E90201FEF7E2
:102BD00017FF41EC160B88EE067BF7EEC77B3B6ACE
:102BE000C3ED007AFB69002B2BD07B6AD3E9160179
:102BF0007B6AD3E91C23861A3E6061EB03037B608A
:102C0000D7E90001FEF7FCFE41EC160B9FED287B97
:102C100026EE078B7B6AD3E914017B6AD3E91A237A
:102C2000B0EB020A61EB030B50465946FEF7E8FE93
:102C300041EC160B88EE067BF7EEC77BFB69C3ED14
:102C4000007ABB69002B29D07B6AD3E916017B6A25
:102C5000D3E93423B0EB020861EB0309404649464F
:102C6000FEF7CEFE41EC160B9FED117B26EE078B97
:102C70007B6AD3E914017B6AD3E93223841A61EBBE
:102C8000030520462946FEF7BBFE41EC160B88EEF5
:102C9000067BF7EEC77BBB69C3ED007A00BF2C371C
:102CA000BD46BDEC028BBDE8F08F00BFAFF30080E6
:102CB000000000000000594080B586B000AFF86009
:102CC000B9607A60BB68022B02DD4FF0FF3356E03B
:102CD000B868B968FB6804331A4636F055FE0246F8
:102CE000FB681A60FB681B68002B45D0B868FB685E
:102CF00058331A46002136F047FE0246FB685A65F3
:102D0000FB685B6D002B30D0FB68BA68C3F8A82065
:102D100000237B611BE07B699B007A6813441B687E
:102D2000002B06D1184B194A40F2DB1118483CF031
:102D300021F87B699B007A6813441A68F9687B69FB
:102D40002A339B000B445A607B6901337B617A69AB
:102D5000BB689A42DFDBFB680022C3F8B420FB6843
:102D60000022C3F8B820002309E000BFFB681B68FD
:102D7000184637F07BF900E000BF4FF0FF331846EC
:102D80001837BD4680BD00BF28610434CC2105340E
:102D90001C61043480B584B000AF786039607B6812
:102DA0001A683B68002B02D04FF0FF3300E000238D
:102DB0001946104637F06AF8F860FB68002B01D11D
:102DC000002318E07B68D3F8B4307A682A339B007C
:102DD00013445B68BB607B68D3F8B43001337A6816
:102DE000D2F8A82093FBF2F101FB02F29A1A7B6859
:102DF000C3F8B420BB6818461037BD4680BD00003C
:102E000080B584B000AF78607B681868002300222A
:102E1000002136F0EFFDF860FB68012B06D0054B72
:102E2000054A40F2FD1105483BF0A4FF00BF1037F2
:102E3000BD4680BD34610434D82105341C6104349E
:102E400080B584B000AF78607B685B6D4FF0FF3178
:102E5000184637F01BF8F860FB68012B06D0124BC0
:102E6000124A40F2062112483BF084FF7B68D3F8F7
:102E7000B8307A682A339B0013445B68BB607B6878
:102E8000D3F8B83001337A68D2F8A82093FBF2F176
:102E900001FB02F29A1A7B68C3F8B820BB68184697
:102EA0001037BD4680BD00BF34610434E8210534CD
:102EB0001C61043480B584B000AF78600023BB602F
:102EC00039F0E2F90346002B1AD07B685B6D07F1FD
:102ED00008021146184636F075FEF860FB68012BB3
:102EE00006D0124B124A40F2152112483BF042FF25
:102EF000BB68002B16D0104B4FF080521A6011E0C7
:102F00007B68586D00230022002136F073FDF860C5
:102F1000FB68012B06D0054B054A40F219210548F4
:102F20003BF028FF00BF1037BD4680BD346104343C
:102F3000FC2105341C61043404ED00E080B584B04C
:102F400000AF78607B68194A02FB03F3184A134408
:102F5000002118463AF0D4FDF860FB68002B06D03B
:102F6000144B154A40F2222114483BF003FF002085
:102F70003AF0DAFDF860FB68002B06D00D4B0E4AE4
:102F80004FF409710D483BF0F5FE3AF0DFFDF860B3
:102F9000FB68002B06D0074B074A40F22721074861
:102FA0003BF0E8FE00BF1037BD4680BD0070170043
:102FB0000000009144610434102205341C61043483
:102FC00080B584B000AF204B1B6801335A4203F038
:102FD000030302F0030253EA42B3FB601B4B1B687E
:102FE00001335A4203F0030302F0030253EA42B3EF
:102FF000BB602CF091F8BB68154A02FB03F3154A3D
:1030000013440022012108F017FB03467B607B6814
:10301000002B06D0104B114A40F2322110483BF0F1
:10302000A9FEF868FFF78AFF074AFB681360074AA2
:10303000BB6813600B4B1B6801330A4A136000BF67
:103040001037BD4680BD00BFF4A4113478CD1134D3
:1030500000701700000000915061043420220534F4
:103060001C61043400DD113480B582B000AF002152
:103070001248FFF78FFE78607B68002B1AD02CF087
:103080004BF87B680022022108F0D6FA03463B6029
:103090003B68002B06D00A4B0A4A40F245210A48F9
:1030A0003BF068FE094B1B68013B094A136003486B
:1030B000FFF700FF00BF0837BD4680BD08DD1134B3
:1030C000506104343C2205341C61043400DD1134A9
:1030D00004DD113480B582B000AF00233B600B4BA0
:1030E0001B683A461146184636F06CFD78607B68DE
:1030F000012B06D13B68002B03D0054B4FF08052CB
:103100001A6000BF0837BD4680BD00BFE45E1234C0
:1031100004ED00E080B485B000AF786039607B6872
:103120001B68FB603B681B68BB607B681B68002BEF
:1031300002DA7B6800221A603B681B68002B02DA07
:103140003B6800221A607B681B681A46144B9B6818
:103150009A4205D3124B9B68013B1A467B681A6062
:103160003B681B681A460E4BDB689A4205D30C4B32
:10317000DB68013B1A463B681A607B681B68FA688B
:103180009A4204D13B681B68BA689A4201D0012375
:1031900000E0002318461437BD465DF8047B7047F5
:1031A000D4A4113480B487B000AFF860B9607A60FD
:1031B000FB681B687B61BB681B683B61FB681B6825
:1031C0007A689A4202DDFB687A681A60BB681B68FD
:1031D0007A689A4202DDBB687A681A60FB681B68ED
:1031E0001946194B9A687B68D31A994207D3164B34
:1031F0009A687B68D31A013B1A46FB681A60BB6861
:103200001B681946104BDA687B68D31A994207D3BA
:103210000D4BDA687B68D31A013B1A46BB681A600B
:10322000FB681B687A699A4204D1BB681B683A69DB
:103230009A4201D0012300E0002318461C37BD4606
:103240005DF8047B704700BFD4A4113490B58FB0F3
:1032500002AF78607B68D3ED017AFDEEE77A17EE76
:10326000903ABB627B68D3ED027AFDEEE77A17EE07
:10327000903A7B627B68D3ED037AFDEEE77A17EE36
:10328000903A3B627B68D3ED047AFDEEE77A17EE65
:10329000903AFB613B6A0133DA0F13445B105B42E7
:1032A0001A46BB6A13447B61FB690133DA0F13448E
:1032B0005B105B421A467B6A13443B613B6A0133F5
:1032C000DA0F13445B101A46BB6A1344FB60FB69B8
:1032D0000133DA0F13445B101A467B6A1344BB6058
:1032E00007F1100207F1140311461846FFF712FF09
:1032F00007F1080207F10C0311461846FFF70AFF11
:103300007B6918463B691946FA687B69D31A1C46E3
:10331000BA683B69D31A1A464FF0FF23009313464D
:10332000224620F013F80023FB6234E0FB6A002BF6
:1033300004D0FB6A022B01D01B4B00E01B4BBB618E
:103340007B685A69FB6ADB001344D3ED007AFDEE1B
:10335000E77A17EE903A7B617B685A69FB6ADB007B
:103360001344D3ED017AFDEEE77A17EE903A3B6114
:1033700007F1100207F1140311461846FFF7CAFEC1
:103380007B6918463B691946BB69022220F0CEF9D9
:10339000FB6A0133FB62FB6A062BC7DD00BF00BF7F
:1033A0003437BD4690BD00BF0000FFFFFF0000FFA7
:1033B00080B58CB000AF786039607B68D3ED027A5D
:1033C000B1EE677AF0EE006AC7EE267AC7ED037AAF
:1033D0007B68D3ED037AB1EE677AF0EE006AC7EE50
:1033E000267AC7ED047A7B6893ED027AF0EE006AE4
:1033F000C7EE267AC7ED057A7B68D3ED037AB1EE86
:10340000677AF0EE006AC7EE267AC7ED067A7B6827
:1034100093ED027AF0EE006AC7EE267AC7ED077ADE
:103420007B6893ED037AF0EE006AC7EE267AC7ED6B
:10343000087A7B68D3ED027AB1EE677AF0EE006A23
:10344000C7EE267AC7ED097A7B6893ED037AF0EE32
:10345000006AC7EE267AC7ED0A7A07F10C0320222C
:10346000194638683BF0B2FC0023FB6224E0FB6A9B
:10347000DB003A68134493ED007A7B68D3ED007A61
:10348000FB6ADB003A68134477EE277AC3ED007AD3
:10349000FB6ADB003A68134493ED017A7B68D3ED55
:1034A000017AFB6ADB003A68134477EE277AC3EDB2
:1034B000017AFB6A0133FB62FB6A032BD7DD00BF95
:1034C00000BF3037BD4680BD80B584B000AF7860A6
:1034D00039600023FB600023BB6031E0BB68DB0088
:1034E0007A681344D3ED007ABB68DB003A68134472
:1034F000FDEEE77A17EE902A1A60BB68DB007A6867
:103500001344D3ED017ABB68DB003A681344FDEE47
:10351000E77A17EE902A5A60BB68DB003A681344DA
:103520001846BB68DB003A68134404331946FFF7BA
:10353000F1FD0246FB681343FB60BB680133BB60CF
:10354000BB68032BCADDFB6818461037BD4680BD3B
:1035500090B597B002AF786007F1280319467868F4
:10356000FFF726FF07F1080207F128031146184666
:10357000FFF7AAFFB864BB6C002B3BD10023FB64B0
:1035800034E0FB6CDB0050333B4453F8483C1846B6
:10359000FB6CDB0050333B4453F8443C1946FB6C56
:1035A00001335A4203F0030302F0030253EA42B329
:1035B000DB0050333B4453F8483C1C46FB6C013362
:1035C0005A4203F0030302F0030253EA42B3DB0062
:1035D00050333B4453F8443C1A46084B009313467F
:1035E00022461FF0F9FDFB6C0133FB64FB6C032BDF
:1035F000C7DD00E000BF5437BD4690BD0000FFFFAF
:1036000080B52DED048B88B000AFF860B9607A60AA
:10361000FB681B69FB61FB689B68BB61FB68DB683F
:103620007B61FB68D3ED007AB7EEE78ABB68D3ED28
:10363000007AB7EEE77AB6EE006B37EE466BD7ED61
:10364000067AB7EEE77A26EE079BD7ED077AB7EE54
:10365000E77AB0EE470B3DF057FDB0EE407B29EE28
:10366000077B38EE078BBB68D3ED017AB7EEE77ABC
:10367000B6EE006B37EE466BD7ED057AB7EEE77A1C
:1036800026EE079BD7ED077AB7EEE77AB0EE470B49
:103690003EF026FBB0EE407B29EE077B38EE477B01
:1036A000F7EEC77B7B68C3ED007AFB68D3ED017A48
:1036B000B7EEE78ABB68D3ED007AB7EEE77AB6EEED
:1036C000006B37EE466BD7ED067AB7EEE77A26EE5B
:1036D000079BD7ED077AB7EEE77AB0EE470B3EF0DF
:1036E000FFFAB0EE407B29EE077B38EE078BBB6814
:1036F000D3ED017AB7EEE77AB6EE006B37EE466BA4
:10370000D7ED057AB7EEE77A26EE079BD7ED077A75
:10371000B7EEE77AB0EE470B3DF0F6FCB0EE407B3B
:1037200029EE077B38EE077BF7EEC77B7B68C3ED9E
:10373000017A00BF2037BD46BDEC048B80BD000080
:1037400080B588B000AF78600223BB617B681C3312
:103750007B610023FB6132E0FB690633DB007A68A2
:10376000134407F10C0219467869FFF749FFD7EDBA
:10377000037AFDEEE77A17EE901A264AFB6942F8C3
:103780002310D7ED047AFDEEE77A17EE901A224A5D
:10379000FB6942F82310FB699B001E4A9818FB69DD
:1037A0009B001D4A1344BA691946FFF7FBFC024609
:1037B0001A49FB6941F82320FB690133FB61FB696E
:1037C000B3F5EA7FC8DB0023FB6119E0134AFB690C
:1037D00052F82330002B0FD10E4AFB6952F82330E8
:1037E00018460D4AFB6952F823301946BA696FF042
:1037F000FF031FF09BFF00E000BFFB690133FB618B
:10380000FB69B3F5EA7FE1DB00BF00BF2037BD46AF
:1038100080BD00BF385F123488661234D86D123410
:1038200080B582B000AF786039607B689B69002BFF
:1038300009D03B6804331846FFF708FD3B681C338A
:103840001846FFF785FE7B685B69002B02D038685D
:10385000FFF776FF00BF0837BD4680BD90B589B041
:1038600002AF786000233B615F4B18685E4B59687C
:103870005D4B9A685C4BDB68002400941FF0D6FE19
:103880005A48FFF70EF907F10802002300215748B4
:10389000FFF76EF97B6893ED007ADFED556AC6EEAF
:1038A000877AC7ED057A1FF0FBF90346DB881A46D5
:1038B0003B6902FB03F319464E4B0222002001F044
:1038C000A5FA3B6901333B611FF0EAF90346DB8847
:1038D0001A463B6902FB03F31946D7ED027AB7EEAD
:1038E000E77A8DED007B444B0222002001F08EFA36
:1038F0003B6902333B611FF0D3F90346DB881A466C
:103900003B6902FB03F319463C4B0222002001F005
:103910007DFA3B6901333B611FF0C2F90346DB8846
:103920001A463B6902FB03F319467B685B68009308
:10393000334B0222002001F069FA3B6901333B61FD
:103940001FF0AEF90346DB881A463B6902FB03F31E
:1039500019467B689B6800932A4B0222002001F0E5
:1039600055FA3B6902333B611FF09AF90346DB8845
:103970001A463B6902FB03F31946D7ED057AB7EE09
:10398000E77A8DED007B204B0222002001F03EFA09
:103990003B6902333B610023FB601AE07A68FB68F5
:1039A0004FF46D6101FB03F3134424331B68002BB8
:1039B0000CD0FB684FF46D6202FB03F320337A688E
:1039C0001344043319467868FFF72AFFFB68013374
:1039D000FB607B68DB69FA689A42DFDB00BF00BFEF
:1039E0001C37BD4690BD00BFE4A4113480CD113416
:1039F00000007A44606104346C61043478610434FA
:103A00008461043494610434B061043480B586B0B8
:103A100000AF786002F06AFF786102F05DFF386104
:103A20003869FEF7C8FF02467B681A607869FEF7BE
:103A3000B3FF02467B685A607869FEF7BCFF024616
:103A40007B689A607B680322DA607B6840F6340208
:103A50001A617B680A225A617B68114A9A617B6805
:103A6000104ADA617B684FF07E521A627B6800224E
:103A700083F824207B680C330B4918462BF07AFA24
:103A8000F860FB68002B06D0084B094A40F252311F
:103A900008483BF06FF900BF1837BD4680BD00BF36
:103AA0009A99993ECDCCCC3D94B411344461043400
:103AB0005C2205341C61043480B58CB000AFF86022
:103AC000B9607A6003F06EFCF862BB681B681A4646
:103AD000F968002002F074F90346BB62BB6A002B50
:103AE00006D02A4B2A4A40F25F312A483BF042F97D
:103AF000294828F0DDF9BB685B683B61BB6803F1CE
:103B00003002BB680C3307F1100001212BF06EFA74
:103B1000B862BB685B6B7B62FEF75CFF0346002B01
:103B200027D0BB685B68BA6892683B62FA61FB6940
:103B3000002B1DDD3B6A03F01F02FB691344BB61D0
:103B40003B6A7B61BFF34F8F00BF144A7B69C2F8A9
:103B50005C327B6920337B61BB69203BBB61BB6905
:103B6000002BF2DCBFF34F8F00BFBFF36F8F00BF9E
:103B700000BF03F017FC0246FB6AD21A7B681A608A
:103B80007B6A18463037BD4680BD00BFBC61043437
:103B9000702205341C61043494B4113400ED00E04B
:103BA00080B584B000AF786003F006FAF86003F0E7
:103BB000F9F9B860B868FEF7EFFE02467B681A6054
:103BC000B868FEF7F8FE02467B685A60F868FEF7B0
:103BD000E3FE02467B689A60F868FEF7ECFE024658
:103BE0007B68DA607B68DB68042B06D0134B144AD1
:103BF00040F27F3113483BF0BDF8FB68383318467C
:103C0000FEF7CAFE02467B681A61FB683833184625
:103C1000FEF7D1FE02467B685A617B685B6941F220
:103C2000F052934206D0084B054A40F285310548D0
:103C30003BF0A0F800BF1037BD4680BDDC61043406
:103C4000842205341C6104340062043480B5A4B0BD
:103C500004AFF860B9607A607B681B68FB67C023BB
:103C60007B67C023BB6707F134031946B868FFF7C9
:103C70009FFB07F1140207F1340311461846FFF7C2
:103C800023FC38673B6F002B00F0B6807B68186818
:103C90007B685B681A4600213AF028FC7B6907EED6
:103CA000903AB8EEE77AD7ED0D7A77EE677A9FED26
:103CB000847A67EE876A97ED117AD7ED0D7A37EE41
:103CC000677AC6EE877AFDEEE77A17EE903AFB66E2
:103CD000BB6907EE903AB8EEE77AD7ED0E7A77EE49
:103CE000677A9FED777A67EE876A97ED127AD7ED5C
:103CF0000E7A37EE677AC6EE877AFDEEE77A17EE30
:103D0000903ABB66BA6E13465B0013449B011A4699
:103D1000FB6E13449B001A46FB6F1344FB677A6AE1
:103D20007B69D31A07EE903AF8EEE76A97ED117ABD
:103D3000D7ED0D7A37EE677AC6EE877A9FED607A17
:103D400067EE877AFDEEE77A17EE903A7B67BA6AFC
:103D5000BB69D31A07EE903AF8EEE76A97ED127A4C
:103D6000D7ED0E7A37EE677AC6EE877A9FED547AF2
:103D700067EE877AFDEEE77A17EE903ABB677B6FC6
:103D8000002B06D14F4B504A40F2AD314F483AF02C
:103D9000F1FFBB6F002B06D14D4B4B4A40F2AE31C9
:103DA0004A483AF0E7FFBA6F13465B0013449B01A1
:103DB0001A467B6F13449B00A3F20133FA6F13443E
:103DC0007B667B681B687A6E9A4206D2414B3E4AFC
:103DD0004FF46D713D483AF0CDFF7B681A687B68FF
:103DE0005B6813447A6E9A4206D33B4B364A40F2E4
:103DF000B53136483AF0BEFFBB694FF4486202FB6A
:103E000003F31A467B699B001344FA6813443B662C
:103E10007A6A7B69D31AFB65BA6ABB69D31ABB6538
:103E2000FB6D002B06D12D4B274A40F2BD312748B0
:103E30003AF0A0FFBB6D002B06D1294B224A40F27D
:103E4000BE3122483AF096FFBB6D4FF4487203FB37
:103E500002F2FB6D13449B00A3F681433A6E1344B8
:103E60007B657A6DFB689A4206D21E4B164A4FF468
:103E7000717116483AF07EFFFB6803F5BB1303F53A
:103E800080537A6D9A4206D3174B0F4A40F2C531E0
:103E90000E483AF06FFFBB6F03937B6F0293BB6DCD
:103EA0000193FB6D00934FF440734FF44862F96F38
:103EB000386E38F047FE002318468037BD4680BD77
:103EC0000000404330620434982205341C610434FD
:103ED00040620434506204346C6204349C620434E2
:103EE000AC620434BC620434D462043480B58EB055
:103EF00000AFF860B9607A603B60BA687968F868CA
:103F0000FFF7A4FE78637B6B002B01D0002366E0F3
:103F1000354827F0CDFFFEF75DFD0346002B27D087
:103F2000BB689B68BA68D268FB62BA62BB6A002B46
:103F30001DDDFB6A03F01F02BB6A13447B62FB6A50
:103F40003B62BFF34F8F00BF284A3B6AC2F85C3226
:103F50003B6A20333B627B6A203B7B627B6A002B9F
:103F6000F2DCBFF34F8F00BFBFF36F8F00BF00BF06
:103F7000FEF730FD0346002B27D0BB681B69BA68EB
:103F80005269FB61BA61BB69002B1DDDFB6903F05F
:103F90001F02BB6913447B61FB693B61BFF34F8F19
:103FA00000BF124A3B69C2F85C323B6920333B6177
:103FB0007B69203B7B617B69002BF2DCBFF34F8F79
:103FC00000BFBFF36F8F00BF00BFBB689868BB68BE
:103FD0001B693A68194600F08FFE38633B6B184640
:103FE0003837BD4680BD00BFC4B4113400ED00E0D9
:103FF000B0B5C2B000AF07F58473A3F58273186043
:104000004FF00003C7F804314FF00003C7F8003148
:104010004FF00003C7F8FC304FF0FF33C7F8F03023
:1040200007F150031846FFF7F1FC07F13803184673
:10403000FFF7B6FD03F0B6F90346C7F8903000214C
:10404000B048FEF7A7FEC7F8DC00D7F8DC30002B3D
:1040500006D1AD4BAD4A40F24651AD483AF08AFE2A
:104060000021D7F8DC0003F04FF94FF0FF33C7F819
:10407000F03007F1500330330822002118463AF09F
:1040800035FAD7F89030C7F88C3003F08BF9034637
:10409000C7F89030D7F89020D7F88C30D31AC7F8EB
:1040A000D830D7ED417AB2EE0E7A27EE877AD7F87C
:1040B000D83007EE903AF8EE677A37EE277AF3EECB
:1040C000006AC7EE267AC7ED417A8E48FEF7B8FE41
:1040D000C7F8D400D7F8D430002B06D18D4B8B4ACB
:1040E00040F255518A483AF045FED7F8D430C7F827
:1040F000B0304FF49623C7F8AC30D7F8AC30002B73
:1041000028DDD7F8B03003F01F02D7F8AC301344E5
:10411000C7F8A830D7F8B030C7F8A430BFF34F8F36
:1041200000BF7D4AD7F8A430C2F85C32D7F8A4307B
:104130002033C7F8A430D7F8A830203BC7F8A83000
:10414000D7F8A830002BECDCBFF34F8F00BFBFF3D4
:104150006F8F00BF00BF07F1880207F150031946B7
:10416000D7F8D400FFF7A8FCC7F8D00003F01AF97D
:10417000C7F8F80003F016F90246D7F8F830D31A5A
:10418000C7F8F8300023C7F8CC30644B5B6D4FF0B4
:10419000FF31184635F07AFEC7F8C800D7F8C830A6
:1041A000012B06D05E4B594A40F2665158483AF00E
:1041B000E1FD4FF00003C7F8EC300023C7F8E8300A
:1041C00032E0D7F88010D7F8E82013465B0013449C
:1041D000DB000B445B69022B21D1D7F88010D7F8A4
:1041E000E82013465B001344DB000B44D3ED047A54
:1041F00097ED3B7AB4EEE77AF1EE10FA0FD5D7F8E7
:104200008010D7F8E82013465B001344DB000B4412
:104210001B69C7F8EC30D7F8E830C7F8F030D7F8AA
:10422000E8300133C7F8E830D7F88430D7F8E82011
:104230009A42C6DB0023C7F8E430D7F8F030B3F178
:10424000FF3F75D00123C7F8E430D7F88010D7F8C6
:10425000F02013465B001344DB000B4407F10C0411
:104260001D460FCD0FC495E8030084E80300D7ED89
:10427000057A9FED2C7A67EE877AFDEEE77AF8EE05
:10428000E77AC7ED0B7AD7ED067A9FED277A67EECE
:10429000877AFDEEE77AF8EEE77AC7ED0C7AD7ED8C
:1042A000037A9FED207A67EE877AFDEEE77AF8EEE3
:1042B000E77AC7ED097AD7ED047A9FED1B7A67EEAE
:1042C000877AFDEEE77AF8EEE77AC7ED0A7A4FF0E3
:1042D00000037B6303F066F8C7F8F80007F12402D7
:1042E00007F13801114BD7F8D400FFF7FFFDC7F8ED
:1042F000F40003F057F80246D7F8F830D31AC7F89D
:10430000F83018E008DD1134C8630434B4220534F1
:104310001C610434D463043400ED00E0F8A41134CB
:1043200034610434000048440000F04360CE11348E
:104330000023C7F8E430D7ED407AB1EE0C7A27EECF
:10434000877AD7F8883007EE903AF8EE677A37EE3A
:10435000277AF2EE006AC7EE267AC7ED407AD7EDEB
:104360003F7AB1EE0C7A27EE877AD7F8F83007EE6D
:10437000903AF8EE677A37EE277AF2EE006AC7EEE7
:10438000267AC7ED3F7A6A48FEF73AFDBB6CC7F85C
:10439000C430D7ED3B7A9FED677A67EE877AFDEE02
:1043A000E77A17EE902A644BC3F8AC20624AD7F83C
:1043B0000431C2F8A830D7F884305F4AC2F8C4305C
:1043C0005D4B4FF00002C3F8C8205B4AD7F8F430C9
:1043D000C2F8CC30D7F8E430002B54D0574B1B6ACE
:1043E000C7F8C03097ED097AD7ED0B6AB0EE006AD6
:1043F000C6EE867A77EE677AC7ED2F7A97ED0B7A5D
:10440000DFED4F6AC7EE267A97ED307A67EE277AAE
:10441000C7ED2E7A97ED2F7AD7ED2E7A77EE277AA1
:10442000FDEEE77A17EE903AC7F8B430D7F8B4301B
:10443000414AC2F8B030404B03F1E80407F12405CB
:104440000FCD0FC42B6823600023C7F8E03014E0C1
:10445000394AD7F8E0301F33DB0013443748D7F828
:10446000E0101A1DCB00034493E8030082E8030028
:10447000D7F8E0300133C7F8E030D7F8E030B3F5D3
:10448000EA7FE5DB03E02C4B0022C3F8B0202D4B84
:10449000C7F8A0304FF46D63C7F89C30D7F89C3054
:1044A000002B28DDD7F8A03003F01F02D7F89C308E
:1044B0001344C7F89830D7F8A030C7F89430BFF34A
:1044C0004F8F00BF204AD7F89430C2F86832D7F82F
:1044D00094302033C7F89430D7F89830203BC7F891
:1044E0009830D7F89830002BECDCBFF34F8F00BF2B
:1044F000BFF36F8F00BF00BF0F4B586D002300222A
:10450000002135F077FAC7F8C800D7F8C830012B7A
:1045100006D00E4B0E4A4FF4B9610E483AF02AFC11
:10452000054B186800230022002135F063FA9CE552
:1045300008DD11340000C842F8A4113460CE1134F3
:1045400000004043C4A5113400ED00E034610434A0
:10455000B42205341C61043480B582B000AF72B659
:1045600000BF0E4B1B680E4A02FB03F30D4A1344B7
:104570000121184639F0C4FA78607B68002B06D018
:10458000094B0A4A40F2356109483AF0F3FB62B63A
:1045900000BF00BF0837BD4680BD00BF7CCD1134D1
:1045A00000B80B0000C05D9150610434C422053492
:1045B0001C61043480B582B000AF72B600BF012028
:1045C00039F0B2FA78607B68002B06D0094B0A4AB2
:1045D00040F23F6109483AF0CDFB62B600BF084B9C
:1045E0001B68C3F10103064A136000BF0837BD46CC
:1045F00080BD00BF50610434DC2205341C610434EA
:104600007CCD113480B584B000AF78607B68FB60EE
:10461000FB685B6D4FF0FF31184635F037FCB86032
:10462000BB68012B06D0144B144A40F24A6114486F
:104630003AF0A0FBFB68D3F8BC30002B0CBF012381
:104640000023DBB21A46FB68C3F8BC20FB68586D38
:1046500000230022002135F0CDF9B860BB68012BA2
:1046600006D0054B054A40F24D6105483AF082FB01
:1046700000BF1037BD4680BD34610434F4220534D8
:104680001C61043480B584B000AF78607B68FB6047
:10469000FB685B6D4FF0FF31184635F0F7FBB860F3
:1046A000BB68012B06D0144B144A40F256611448E3
:1046B0003AF060FBFB68D3F8C030002B0CBF01233D
:1046C0000023DBB21A46FB68C3F8C020FB68586DB4
:1046D00000230022002135F08DF9B860BB68012B62
:1046E00006D0054B054A40F2596105483AF042FBB5
:1046F00000BF1037BD4680BD34610434102305343B
:104700001C61043480B5ADF6387D00AF07F6387310
:10471000A3F6347318600023C7F8343F07F60C7013
:104720005A4B5B4A0021FEF75DF907F6FC60574BD8
:10473000584A0121FEF756F9544B1B684FF0FF31E0
:10474000184635F0A3FBC7F8300FD7F8303F012BE0
:1047500006D0514B514A40F26F6151483AF00AFB82
:1047600007F60C731846FEF76BF907F6FC6318465C
:10477000FEF766F9454B5B6D4FF0FF31184635F09B
:1047800085FBC7F8300FD7F8303F012B06D0424BDE
:10479000424A40F2756142483AF0ECFA07F6387343
:1047A000A3F57362394B1046A83340F6F4621946FC
:1047B0003AF00CFB354B586D00230022002135F0F8
:1047C00019F9C7F8300FD7F8303F012B06D0324B1C
:1047D000324A4FF4CF6132483AF0CCFA07F63873D8
:1047E000A3F57363D7F8342F1A6102F0DBFDC7F825
:1047F0002C0FFFF7B1FE07F108031846FFF72EF85C
:10480000284B1B68284A02FB03F3284A1344C7F8C5
:10481000283F254BC7F8243FD7F8243F002B28DD3D
:10482000D7F8283F03F01F02D7F8243F1344C7F8F6
:10483000203FD7F8283FC7F81C3FBFF34F8F00BF7A
:104840001B4AD7F81C3FC2F86832D7F81C3F203308
:10485000C7F81C3FD7F8203F203BC7F8203FD7F8C8
:10486000203F002BECDCBFF34F8F00BFBFF36F8FF7
:1048700000BF00BFFFF79EFE02F094FD0246D7F88E
:104880002C3FD31AC7F8343F56E700BFF8A41134C1
:104890000546003485460034346104342C23053445
:1048A0001C6104347CCD113400B80B0000C05D9154
:1048B00000ED00E080B584B000AF78600A4B1B6863
:1048C0004FF0FF31184635F0E1FAF860FB68012B34
:1048D00006D0064B064A40F28A6106483AF04AFA88
:1048E00002F030FDEAE700BFE45E123434610434C4
:1048F0003C2305341C61043480B590B000AF344BC8
:104900001B689BB2BB83324B5B689BB2FB83304B13
:104910009B689BB23B842E4BDB689BB27B8403235A
:1049200087F824302B4B1B682B4A02FB03F32B4ADE
:104930001344BB622A4B1B689BB2BB85284B5B6848
:104940009BB2FB85264B9B689BB23B86244BDB6866
:104950009BB27B86012387F83430224BBB631C4B10
:104960009B689BB2BB811A4BDB689BB2FB81022325
:104970003B741D4B7B611E233B8307F11C037B6053
:1049800007F11C031033BB6007F10C023B1D1146FD
:10499000184639F039F8F863FB6B002B06D0134B3F
:1049A000134A40F2B16113483AF0E4F901201EF0D5
:1049B0000BF900201EF002FB0F481EF05DF94FF0CE
:1049C000FF301EF045F900BF4037BD4680BD00BF37
:1049D000D4A41134F4A41134007017000000009125
:1049E000E4A4113400786991003075914461043475
:1049F0004C2305341C61043424B5113480B594B0C3
:104A000004AF1E23FB631A23BB631D237B6387480C
:104A100039F0B8FF864BDB68854A43F08073D3607A
:104A2000844A0021844839F061FDFDF7D3FF034635
:104A3000002B25D0804BBB627E4B7B627B6A002BB8
:104A40001DDDBB6A03F01F027B6A13443B62BB6A35
:104A5000FB61BFF34F8F00BF784AFB69C2F8703229
:104A6000FB692033FB613B6A203B3B623B6A002BC6
:104A7000F2DCBFF34F8F00BFBFF36F8F00BF00BFEB
:104A80006F4A00216F4839F031FDFDF7A3FF03465F
:104A9000002B25D06B4BBB61694B7B617B69002B85
:104AA0001DDDBB6903F01F027B6913443B61BB69D9
:104AB000FB60BFF34F8F00BF604AFB68C2F87032E3
:104AC000FB682033FB603B69203B3B613B69002B6B
:104AD000F2DCBFF34F8F00BFBFF36F8F00BF00BF8B
:104AE000FFF70AFF584A3B1D92E8030083E80300E2
:104AF0003B1D1A4602215548FEF7DEF838633B6B32
:104B0000002B06D0524B534A40F2CE6152483AF045
:104B100031F95248FDF7B8FF02F0A2FB504A0021DC
:104B2000012034F031FF03464E4A13604D4B1B68A1
:104B3000002B06D14C4B474A40F2D76146483AF029
:104B400019F94A4A0021012034F01EFF0346484A61
:104B50001360474B1B68002B06D1464B3D4A40F281
:104B6000D9613D483AF006F94349012034F0F1FE9D
:104B700003463F4A53653E4B5B6D002B06D13F4BCE
:104B8000344A40F2DB6134483AF0F4F800212A4814
:104B900002F09CFB3A4B02933A4B01937B6B0093E0
:104BA00000234FF480523849384835F065FCF862EC
:104BB000FB6A002B06D1364B264A40F2E3612648B9
:104BC0003AF0D8F8334B0293334B0193BB6B00930D
:104BD00000234FF400623149314835F04DFCF86252
:104BE000FB6A002B06D12A4B1A4A40F2E6611A48AA
:104BF0003AF0C0F82B4B02932B4B0193FB6B0093C5
:104C000000234FF400622949294835F035FCF86249
:104C1000FB6A002B06D11E4B0E4A40F2E9610E489A
:104C20003AF0A8F800BF4037BD4680BDE4630434C5
:104C3000F0ED00E000C05D000000009100ED00E03C
:104C40000070170000C05D913064043408DD113439
:104C5000446104345C2305341C61043480CD113478
:104C6000E85E1234E45E1234F8630434FCA41134B8
:104C7000F8A411340064043450A511340C640434D5
:104C8000C4DD113424DE113418640434F13F0034DF
:104C90001C640434241E1234841E12342864043428
:104CA00005470034843E1234E43E12342C6404344C
:104CB000B548003480B582B000AF78607B68012BC6
:104CC00002D1FEF77DF904E07B68022B01D1FEF7EB
:104CD000CBF9002318460837BD4680BD80B582B0A9
:104CE00000AF78607B68012B01D1FEF7F3F9002358
:104CF00018460837BD4680BD80B487B000AFF86065
:104D0000B9607A60FB68D3ED007AB5EE007AF4EE14
:104D1000C77AF1EE10FA25D500237B611EE07A698F
:104D200013465B0013449B001A46BB681A447B6918
:104D3000DB0079680B4412681A607A6913465B00DD
:104D400013449B000433BA681A447B69DB0079681A
:104D50000B4412685A607B6901337B617B69B3F550
:104D6000EA7FDCDB012318461C37BD465DF8047B77
:104D70007047000080B586B000AF214B7B607C237C
:104D80007B6107F10C023B1D796918461BF0F4FEAC
:104D90000346002B2ED14FF4C0333B61FA683B69C8
:104DA00013403A699A4227D0FA683B691343FB6083
:104DB000FA68381D002379691BF016FF0346002BA3
:104DC00015D107F10C023B1D796918461BF0D4FE82
:104DD0000346002B08D1FA683B6913403A699A42AE
:104DE0000AD000F00FF807E000F00CF804E000F043
:104DF00009F801E000F006F800BF1837BD4680BD95
:104E00000090005680B400AF00BFFDE708B480B545
:104E100087B000AFF860B9601346FB7107F1280353
:104E20007B617B697A6A302107483BF0A7F8FB7900
:104E3000054AB968F8681EF017F900BF1C37BD466F
:104E4000BDE8804001B070472875123480B400AFCF
:104E500000BFBD465DF8047B704780B400AF00BF63
:104E6000FDE780B400AF00BFFDE780B400AF00BF36
:104E7000FDE780B400AF00BFFDE780B500AF2AF0CA
:104E80004BF90346184603F0CFFE00BF80BD80B546
:104E900000AF2AF041F90346184603F0E1FC00BFD9
:104EA00080BD000080B500AF02481DF05DFD00BF71
:104EB00080BD00BF0CBD113480B500AF02481DF0AD
:104EC00079FD00BF80BD00BF0CBD113480B48BB034
:104ED00000AF87ED030AC7ED020A87ED011AC7ED9F
:104EE000001A97ED027AF0EE006AC7EE267A97ED87
:104EF000037A77EE677AC7ED097A97ED007AF0EEDC
:104F0000006AC7EE267A97ED017A77EE677AC7EDE9
:104F1000087A97ED097AD7ED087AB4EEE77AF1EEE0
:104F200010FA01DD7B6A00E03B6AFB6197ED027AD3
:104F3000F0EE006AC7EE267A97ED037A77EE277ACD
:104F4000C7ED067A97ED007AF0EE006AC7EE267A92
:104F500097ED017A77EE277AC7ED057A97ED067A15
:104F6000D7ED057AB4EEE77AF1EE10FA01D5BB6918
:104F700000E07B693B6197ED047AD7ED077A77EE25
:104F8000677AB0EE670A2C37BD465DF8047B704740
:104F900080B586B000AF786039607B68D3ED007A69
:104FA0007B68083393ED007A3B68D3ED006A3B6879
:104FB000083393ED006AF0EE461AB0EE661AF0EE92
:104FC000470AB0EE670AFFF781FF87ED050A7B68A5
:104FD0000433D3ED007A7B680C3393ED007A3B68A1
:104FE0000433D3ED006A3B680C3393ED006AF0EEB6
:104FF000461AB0EE661AF0EE470AB0EE670AFFF7FF
:1050000065FF87ED040AD7ED057AF5EEC07AF1EE7B
:1050100010FA06D4D7ED047AF5EEC07AF1EE10FA64
:1050200002D54FF0000308E097ED057AD7ED047A3A
:1050300067EE277AC7ED037AFB6807EE903AB0EE89
:10504000670A1837BD4680BD80B584B000AF786070
:10505000396039687868FFF79BFF87ED030A7B6842
:10506000083393ED007A7B680C33D3ED007A27EE9A
:10507000277A3B680833D3ED006A3B680C33D3EDE5
:10508000007A66EEA77A37EE277AD7ED037A77EEC5
:10509000677AC7ED027ABB6807EE903AB0EE670A0E
:1050A0001037BD4680BD000080B584B000AF786089
:1050B000396039687868FFF76BFF87ED030A396854
:1050C0007868FFF7C1FF87ED020AD7ED037AF5EEA6
:1050D000407AF1EE10FA06D0D7ED027AF5EE407A7A
:1050E000F1EE10FA02D1DFED086A05E097ED037AE0
:1050F000D7ED027AC7EE276AF0EE667AB0EE670A5D
:105100001037BD4680BD00BF0000000080B48BB0EA
:1051100000AFF860B9607A603B60FB685A00BB681A
:10512000D31A7B627B685A003B68D31A3B623A6AA7
:105130007B6A9342B8BF1346FB61FB685B00BA68A9
:105140001344BB617B685B003A6813447B617A69F6
:10515000BB699342A8BF13463B613A69FB69D31A06
:1051600018462C37BD465DF8047B704780B586B085
:1051700000AF786039607B6818687B68083319680D
:105180003B681A683B6808331B68FFF7BFFF78610C
:105190007B68043318687B680C3319683B680433F8
:1051A0001A683B680C331B68FFF7B0FF38617B69F6
:1051B000002B02DB3B69002B01DA002305E07B6951
:1051C0003A6902FB03F3FB60FB6818461837BD46DB
:1051D00080BD80B584B000AF786039603968786888
:1051E000FFF7C4FFF8607B6808331B687A680C32ED
:1051F000126803FB02F23B6808331B6839680C3104
:10520000096801FB03F313449A00FB68D31ABB60DF
:10521000BB6818461037BD4680BD80B590B000AF62
:10522000F860B9601346FB71FB6893F900301A46C9
:1052300097F90730D31A7B62FB68013393F900308A
:105240001A4697F90730D31ABB62FB68023393F909
:1052500000301A4697F90730D31AFB62FB68033314
:1052600093F900301A4697F90730D31A3B63BB68AD
:1052700093F900301A4697F90730D31A7B61BB685F
:10528000013393F900301A4697F90730D31ABB61FE
:10529000BB68023393F900301A4697F90730D31AE6
:1052A000FB61BB68033393F900301A4697F9073066
:1052B000D31A3B6207F1140207F124031146184682
:1052C000FFF754FFF86307F1140207F124031146B6
:1052D0001846FFF77EFFB863FB6B002B02D0BB6B59
:1052E000002B02D14FF000030EE0FB6B07EE903A6B
:1052F000F8EEE76ABB6B07EE903AB8EEE77AC6EED7
:10530000877AC7ED0D7A7B6B07EE903AB0EE670AAD
:105310004037BD4680BD90B4C8B000AF07F590746B
:10532000A4F58A74206007F59070A0F58C70016078
:1053300007F59071A1F58E710A6007F59072A2F5DC
:1053400090721360802387F8CE3097F8CE30E6EE67
:10535000103B07F59073103B83ED007E002387F828
:10536000CF3097F8CF30E6EE103B07F59073203B37
:1053700083ED007ED7F82C31102B28BF1023C7F8FF
:105380002C31D7F82C31C7F8D030D7F8D03003F013
:1053900001E8FDEE103A9BB2A7F8EA30002387F847
:1053A000D53097F8D530E6EE103B07F59073303BDB
:1053B00083ED007E0023C7F8EC30C4E007F590735E
:1053C000A3F58E72D7F8EC30126802FB03F307F5F1
:1053D0009072A2F58A72126813443B65B7F8EA30FE
:1053E000A7F84E303B6DBB64B7F84E30A7F8463097
:1053F000BB6CB7F84620EDEE102A71FE4D0F93ED11
:10540000007E00BF07F59073483B83ED007E07F5F3
:105410009073B83B07F59072483A92ED007E83EDA9
:10542000007E07F59073C83B07F59072103A92ED35
:10543000007E83ED007EB7F8EA30A7F8563007F516
:105440009073B83B93ED007E07F59073C83B93EDE6
:10545000005EB7F85630EDEE103A71FE4D0F07FEC4
:10546000051FFDEE103A9BB2A7F8D63007F59073F2
:10547000903B07F59072483A92ED007E83ED007EF6
:1054800007F59073A03B07F59072103A92ED007EFD
:1054900083ED007EB7F8D630A7F87E3007F590731D
:1054A000903B93ED007E07F59073A03B93ED005E7B
:1054B000B7F87E30EDEE103A37FE056F07F59073C2
:1054C000103B83ED007E07F59073683B07F5907203
:1054D000303A92ED007E83ED007E07F59073783BC5
:1054E00007F59072203A92ED007E83ED007EB7F8CA
:1054F000D630A7F8A63007F59073683B93ED007E91
:1055000007F59073783B93ED005EB7F8A630EDEEAB
:10551000103A37FE056F07F59073203B83ED007E50
:1055200007F59073303B07F59072303A92ED005ECC
:1055300080EF516E04EF466883ED007ED7F8EC30C3
:105540000133C7F8EC3007F59073A3F58C73D7F8E7
:10555000EC201B689A42FFF431AFD7F82831BB62C8
:1055600007F59073A3F5847307F59072203A92EDD6
:10557000007E83ED007E07F59073A3F58573B7F881
:10558000EA201A80BB6A07F59072A2F5847292ED48
:10559000007E07F59072A2F585721288EDEE102A52
:1055A00071FE4D0F83ED007E00BF07F59073A3F5EC
:1055B00090731B683B6407F59073F03B07F590729E
:1055C000103A92ED007E83ED007EB7F8EA30FB855D
:1055D0003B6C07F59072F03A92ED007EFA8DEDEE9D
:1055E000102A71FE4D0F83ED007E00BF00BF07F54E
:1055F0009077BD4690BC704790B4ADF53A7D00AF52
:1056000007F53A74A4F53774206007F53A70A0F5F1
:105610003870016007F53A71A1F539710A6007F534
:105620003A72A2F53A721360802387F8593297F8DC
:105630005932E6EE103B07F53A73103B83ED007EDE
:10564000002387F85A3297F85A32E6EE103B07F5F6
:105650003A73203B83ED007E002387F85B3297F896
:105660005B32E6EE103B07F53A73303B83ED007E8C
:10567000D7F8F432102B28BF1023C7F8F432D7F82C
:10568000F432C7F85C32D7F85C3203F001E8FDEE83
:10569000103A9BB2A7F87A32002387F8B73212E2A9
:1056A00007F53A73A3F538731B68B3F5807F28BFFD
:1056B0004FF48073C7F87432002387F8563297F896
:1056C0005632E6EE103B07F53A73483B83ED007E19
:1056D000002387F8573297F85732E6EE103B07F56C
:1056E0003A73583B83ED007E802387F8583297F851
:1056F0005832E6EE103B07F53A73683B83ED007EC7
:105700000023C7F87C32E8E0D7F87C3207F53A721C
:10571000A2F53972126802FB03F307F53A72A2F59B
:10572000377212681A4407F53A73A3F588731A6042
:1057300007F53A73A3F58973B7F87A221A8007F54B
:105740003A73A3F58C7307F53A72A2F58872126862
:105750001A6007F53A73A3F58D7307F53A72A2F54F
:10576000897212881A8007F53A73A3F58C731B6847
:1057700007F53A72A2F58D721288EDEE102A71FECD
:105780004D0F93ED007E00BF07F53A73883B83ED24
:10579000007E07F53A73F83B07F53A72883A92EDC6
:1057A000007E83ED007E07F53A73A3F5847307F559
:1057B0003A72683A92ED007E83ED007E07F53A7307
:1057C000A3F58573B7F87A221A8007F53A73F83B88
:1057D00093ED007E07F53A73A3F5847393ED005EB5
:1057E00007F53A73A3F585731B88EDEE103A71FE49
:1057F0004D0F07FE051FFDEE103A9BB2A7F872325F
:1058000007F53A73D03B07F53A72883A92ED007E7D
:1058100083ED007E07F53A73E03B07F53A72683A8C
:1058200092ED007E83ED007EB7F87232A7F8063263
:1058300007F53A73D03B93ED007E07F53A73E03BF2
:1058400093ED005EB7F80632EDEE103A37FE056FC5
:1058500007F53A73683B83ED007E07F53A73A83B82
:1058600007F53A72483A92ED007E83ED007E07F527
:105870003A73B83B07F53A72583A92ED007E83EDE1
:10588000007EB7F87232A7F82E3207F53A73A83BBC
:1058900093ED007E07F53A73B83B93ED005EB7F8E1
:1058A0002E32EDEE103A37FE056F07F53A73583B8E
:1058B00083ED007E07F53A73483B07F53A72483AA4
:1058C00092ED005E80EF516E04EF466883ED007E3E
:1058D000D7F87C320133C7F87C32D7F87C22D7F86E
:1058E00074329A42FFF610AF07F53A73A3F5387396
:1058F00007F53A72A2F538721268A2F580721A6042
:1059000007F53A73A3F5CC7307F53A72683A92ED4E
:10591000007E83ED007E07F53A73A3F5D47307F597
:105920003A72103A92ED007E83ED007E07F53A73ED
:10593000A3F5D573B7F87A221A8007F53A73A3F561
:10594000CC7393ED007E07F53A73A3F5D47393ED12
:10595000005E07F53A73A3F5D5731B88EDEE103A98
:1059600071FE4D0F07FE051FFDEE103A9BB2A7F822
:10597000723207F53A73A3F5B87307F53A72683ACD
:1059800092ED007E83ED007E07F53A73A3F5C073B8
:1059900007F53A72103A92ED007E83ED007E07F52E
:1059A0003A73A3F5C173B7F872221A8007F53A73F8
:1059B000A3F5B87393ED007E07F53A73A3F5C073B2
:1059C00093ED005E07F53A73A3F5C1731B88EDEE06
:1059D000103A37FE056F07F53A73103B83ED007EF2
:1059E00007F53A73A3F5A47307F53A72583A92EDA6
:1059F000007E83ED007E07F53A73A3F5AC7307F5DF
:105A00003A72203A92ED007E83ED007E07F53A73FC
:105A1000A3F5AD73B7F872221A8007F53A73A3F5B0
:105A2000A47393ED007E07F53A73A3F5AC7393ED81
:105A3000005E07F53A73A3F5AD731B88EDEE103ADF
:105A400037FE056F07F53A73203B83ED007E97F82C
:105A5000B71207F53A73A3F5987307F53A72303A1F
:105A600092ED007E83ED007E07F53A73A3F23113C9
:105A70000A461A7007F53A73A3F59A73B7F87222BB
:105A80001A8007F53A73A3F5987393ED007E07F536
:105A90003A73A3F231131B7807F53A72A2F59A72A2
:105AA0001288EDEE102A71FE4D0FE6EE103B07F561
:105AB0003A73303B83ED007E97F9B732DBB20133A6
:105AC000DBB287F8B73207F53A73A3F538731B6872
:105AD000002B7FF4E5AD07F53A73A3F5167307F5D0
:105AE0003A72203A92ED007E83ED007E07F53A731C
:105AF000A3F5167393ED007EA8FE466F07F53A7383
:105B0000A3F51E7383ED807E07F53A73A3F5127338
:105B100007F53A72303A92ED007E83ED007E07F58C
:105B20003A73A3F5127393ED007EA8FE466F07F556
:105B30003A73A3F5267383ED807E07F53A73A3F5D8
:105B40001E7393ED805E07F53A73A3F5267393ED0C
:105B5000807E07F53A73A3F5087383ED805E07F541
:105B60003A73A3F50C7383ED807E07F53A73A3F2C5
:105B700032234FF480721A8007F53A73A3F5087345
:105B800093ED807E07F53A73A3F50C7393ED805E79
:105B900007F53A73A3F232231B8815FE436E07F50F
:105BA0003A73A3F51E7383ED807E07F53A73A3F570
:105BB000047307F53A72203A92ED007E83ED007E81
:105BC00007F53A73A3F5047393ED007EA8FE467FB4
:105BD00007F53A73A3F51E73103383ED807E07F546
:105BE0003A73A3F5007307F53A72303A92ED007EEE
:105BF00083ED007E07F53A73A3F5007393ED007E05
:105C0000A8FE467F07F53A73A3F52673103383ED9C
:105C1000807E07F53A73A3F51E73103393ED805E13
:105C200007F53A73A3F52673103393ED807E07F5DD
:105C30003A73A3F5EC7383ED805E07F53A73A3F531
:105C4000F47383ED807E07F53A73A3F5F5734FF493
:105C500080721A8007F53A73A3F5EC7393ED807E9A
:105C600007F53A73A3F5F47393ED805E07F53A7385
:105C7000A3F5F5731B8815FE436E07F53A73A3F57C
:105C80001E73103383ED807E07F53A73A3F5E4733A
:105C9000D7F8F0221A6007F53A73A3F5367307F5C3
:105CA0003A72A2F51E7292EC084B83EC084B07F592
:105CB0003A73A3F52E7307F53A72A2F5367292EC99
:105CC000084B83EC084B07F53A73A3F52E7393EC5E
:105CD000084B07F53A73A3F5E4731B6883FC805EF9
:105CE00083FCA05E00BF07F53A73A3F5D87307F5F0
:105CF0003A72A2F53A7212681A6007F53A73A3F580
:105D0000E07307F53A72103A92ED007E83ED007E63
:105D100007F53A73A3F5E173B7F87A221A8007F50D
:105D20003A73A3F5D8731B6807F53A72A2F5E072CF
:105D300092ED007E07F53A72A2F5E1721288EDEE5F
:105D4000102A71FE4D0F83ED007E00BF00BF07F5E6
:105D50003A77BD4690BC704780B582B000AF78609E
:105D600039607A683B6813441946786828F0C0F8AF
:105D700000BF0837BD4680BD80B582B000AF7860F7
:105D800039607A683B6813441946786828F06EF8E1
:105D900000BF0837BD4680BD80B582B000AF7860D7
:105DA000396023F0F5F97A683B681344194678683E
:105DB00028F048F823F00CFA00BF0837BD4680BD34
:105DC00080B485B000AFF860B9607A60FB68002BE2
:105DD00011D1BB6803F01F03002B01D001230BE09E
:105DE0007B68B3F5962F01D2022305E0054ABB6814
:105DF0001360002300E0032318461437BD465DF806
:105E0000047B70475875123480B483B000AF78605B
:105E10007B68002B02D1054B1B6800E0002318466D
:105E20000C37BD465DF8047B704700BF58751234CF
:105E300080B485B000AFF860B9607A60032318467B
:105E40001437BD465DF8047B704780B483B000AF63
:105E50007860002318460C37BD465DF8047B704718
:105E600080B582B000AF114B00221A60104B11496F
:105E70001846FFF791FF4EF604737B603B1D1A46F0
:105E80000D490B4827F0DEFE034683F00103DBB229
:105E9000002B01D0002305E0054B06491846FFF70B
:105EA0005BFF012318460837BD4680BD70311634AC
:105EB0006075123410BC03006823053480B582B0CD
:105EC00002AF104B10491846FFF766FF0F48104B02
:105ED0001B681A460F4B009313460022094927F00E
